{
  "_format": "hh-sol-artifact-1",
  "contractName": "Bounties",
  "sourceName": "contracts/bounties.sol",
  "abi": [
    {
      "inputs": [],
      "stateMutability": "nonpayable",
      "type": "constructor"
    },
    {
      "anonymous": false,
      "inputs": [
        {
          "indexed": false,
          "internalType": "string",
          "name": "_bountyId",
          "type": "string"
        },
        {
          "indexed": false,
          "internalType": "uint256",
          "name": "_fulfillmentId",
          "type": "uint256"
        },
        {
          "indexed": false,
          "internalType": "uint256",
          "name": "_tokenAmount",
          "type": "uint256"
        }
      ],
      "name": "AnswerAccepted",
      "type": "event"
    },
    {
      "anonymous": false,
      "inputs": [
        {
          "indexed": false,
          "internalType": "string",
          "name": "_bountyId",
          "type": "string"
        },
        {
          "indexed": false,
          "internalType": "address payable",
          "name": "_sender",
          "type": "address"
        },
        {
          "indexed": false,
          "internalType": "string",
          "name": "_answerHash",
          "type": "string"
        },
        {
          "indexed": false,
          "internalType": "uint256",
          "name": "numFulfillments",
          "type": "uint256"
        }
      ],
      "name": "BountyFulfilled",
      "type": "event"
    },
    {
      "anonymous": false,
      "inputs": [
        {
          "indexed": false,
          "internalType": "string",
          "name": "_bountyId",
          "type": "string"
        },
        {
          "indexed": false,
          "internalType": "address payable",
          "name": "_issuer",
          "type": "address"
        },
        {
          "indexed": false,
          "internalType": "string",
          "name": "_questionHash",
          "type": "string"
        },
        {
          "indexed": false,
          "internalType": "uint256",
          "name": "_deadline",
          "type": "uint256"
        }
      ],
      "name": "BountyIssued",
      "type": "event"
    },
    {
      "anonymous": false,
      "inputs": [
        {
          "indexed": false,
          "internalType": "string",
          "name": "_bountyId",
          "type": "string"
        },
        {
          "indexed": false,
          "internalType": "uint256",
          "name": "_contributionId",
          "type": "uint256"
        },
        {
          "indexed": false,
          "internalType": "address payable",
          "name": "_contributor",
          "type": "address"
        },
        {
          "indexed": false,
          "internalType": "uint256",
          "name": "_amount",
          "type": "uint256"
        }
      ],
      "name": "ContributionAdded",
      "type": "event"
    },
    {
      "anonymous": false,
      "inputs": [
        {
          "indexed": false,
          "internalType": "string",
          "name": "_bountyId",
          "type": "string"
        },
        {
          "indexed": false,
          "internalType": "uint256",
          "name": "_contributionId",
          "type": "uint256"
        }
      ],
      "name": "ContributionRefunded",
      "type": "event"
    },
    {
      "inputs": [
        {
          "internalType": "string",
          "name": "_bountyId",
          "type": "string"
        },
        {
          "internalType": "uint256",
          "name": "_answerId",
          "type": "uint256"
        },
        {
          "internalType": "uint256",
          "name": "_tokenAmount",
          "type": "uint256"
        }
      ],
      "name": "acceptAnswer",
      "outputs": [],
      "stateMutability": "nonpayable",
      "type": "function"
    },
    {
      "inputs": [
        {
          "internalType": "string",
          "name": "_bountyId",
          "type": "string"
        },
        {
          "internalType": "string",
          "name": "_answerHash",
          "type": "string"
        }
      ],
      "name": "answerBounty",
      "outputs": [],
      "stateMutability": "nonpayable",
      "type": "function"
    },
    {
      "inputs": [
        {
          "internalType": "string",
          "name": "",
          "type": "string"
        }
      ],
      "name": "bounties",
      "outputs": [
        {
          "internalType": "address payable",
          "name": "issuer",
          "type": "address"
        },
        {
          "internalType": "uint256",
          "name": "deadline",
          "type": "uint256"
        },
        {
          "internalType": "uint256",
          "name": "balance",
          "type": "uint256"
        },
        {
          "internalType": "bool",
          "name": "hasBeenAnswered",
          "type": "bool"
        },
        {
          "internalType": "string",
          "name": "questionHash",
          "type": "string"
        }
      ],
      "stateMutability": "view",
      "type": "function"
    },
    {
      "inputs": [],
      "name": "callStarted",
      "outputs": [
        {
          "internalType": "bool",
          "name": "",
          "type": "bool"
        }
      ],
      "stateMutability": "view",
      "type": "function"
    },
    {
      "inputs": [
        {
          "internalType": "string",
          "name": "_bountyId",
          "type": "string"
        }
      ],
      "name": "contribute",
      "outputs": [],
      "stateMutability": "payable",
      "type": "function"
    },
    {
      "inputs": [
        {
          "internalType": "string",
          "name": "_bountyId",
          "type": "string"
        }
      ],
      "name": "getBounty",
      "outputs": [
        {
          "components": [
            {
              "internalType": "address payable",
              "name": "issuer",
              "type": "address"
            },
            {
              "internalType": "uint256",
              "name": "deadline",
              "type": "uint256"
            },
            {
              "internalType": "uint256",
              "name": "balance",
              "type": "uint256"
            },
            {
              "internalType": "bool",
              "name": "hasBeenAnswered",
              "type": "bool"
            },
            {
              "internalType": "string",
              "name": "questionHash",
              "type": "string"
            },
            {
              "components": [
                {
                  "internalType": "string",
                  "name": "answerId",
                  "type": "string"
                },
                {
                  "internalType": "address payable",
                  "name": "submitter",
                  "type": "address"
                },
                {
                  "internalType": "uint256",
                  "name": "timestamp",
                  "type": "uint256"
                }
              ],
              "internalType": "struct Bounties.Fulfillment[]",
              "name": "fulfillments",
              "type": "tuple[]"
            },
            {
              "components": [
                {
                  "internalType": "address payable",
                  "name": "contributor",
                  "type": "address"
                },
                {
                  "internalType": "uint256",
                  "name": "amount",
                  "type": "uint256"
                },
                {
                  "internalType": "bool",
                  "name": "refunded",
                  "type": "bool"
                }
              ],
              "internalType": "struct Bounties.Contribution[]",
              "name": "contributions",
              "type": "tuple[]"
            }
          ],
          "internalType": "struct Bounties.Bounty",
          "name": "",
          "type": "tuple"
        }
      ],
      "stateMutability": "view",
      "type": "function"
    },
    {
      "inputs": [],
      "name": "getTotalSupply",
      "outputs": [
        {
          "internalType": "uint256",
          "name": "",
          "type": "uint256"
        }
      ],
      "stateMutability": "view",
      "type": "function"
    },
    {
      "inputs": [
        {
          "internalType": "string",
          "name": "_bountyId",
          "type": "string"
        },
        {
          "internalType": "string",
          "name": "_questionHash",
          "type": "string"
        }
      ],
      "name": "issueBountyAndContribute",
      "outputs": [],
      "stateMutability": "payable",
      "type": "function"
    },
    {
      "inputs": [],
      "name": "numBounties",
      "outputs": [
        {
          "internalType": "uint256",
          "name": "",
          "type": "uint256"
        }
      ],
      "stateMutability": "view",
      "type": "function"
    },
    {
      "inputs": [],
      "name": "owner",
      "outputs": [
        {
          "internalType": "address",
          "name": "",
          "type": "address"
        }
      ],
      "stateMutability": "view",
      "type": "function"
    },
    {
      "inputs": [
        {
          "internalType": "string",
          "name": "_bountyId",
          "type": "string"
        },
        {
          "internalType": "uint256",
          "name": "_contributionId",
          "type": "uint256"
        }
      ],
      "name": "refundContribution",
      "outputs": [],
      "stateMutability": "nonpayable",
      "type": "function"
    },
    {
      "inputs": [],
      "name": "withdraw",
      "outputs": [],
      "stateMutability": "nonpayable",
      "type": "function"
    }
  ],
  "bytecode": "0x608060405234801561001057600080fd5b50600160008190555033600360006101000a81548173ffffffffffffffffffffffffffffffffffffffff021916908373ffffffffffffffffffffffffffffffffffffffff16021790555061231a806100696000396000f3fe6080604052600436106100a75760003560e01c80637a18b5ff116100645780637a18b5ff146101a457806388db0f52146101cd5780638da5cb5b146101f8578063c4e41b2214610223578063e51959091461024e578063f47ef94214610277576100a7565b80633cbef373146100ac5780633ccfd60b146100ed57806357f56061146101045780635c43217b146101415780635dd15e891461015d578063720dc00c14610179575b600080fd5b3480156100b857600080fd5b506100d360048036038101906100ce9190611678565b6102a0565b6040516100e49594939291906117be565b60405180910390f35b3480156100f957600080fd5b506101026103a1565b005b34801561011057600080fd5b5061012b60048036038101906101269190611678565b61046c565b6040516101389190611b3c565b60405180910390f35b61015b60048036038101906101569190611678565b6107e6565b005b61017760048036038101906101729190611b5e565b610a3f565b005b34801561018557600080fd5b5061018e610a86565b60405161019b9190611bd6565b60405180910390f35b3480156101b057600080fd5b506101cb60048036038101906101c69190611b5e565b610a99565b005b3480156101d957600080fd5b506101e2610c8b565b6040516101ef9190611bf1565b60405180910390f35b34801561020457600080fd5b5061020d610c91565b60405161021a9190611c2d565b60405180910390f35b34801561022f57600080fd5b50610238610cb7565b6040516102459190611bf1565b60405180910390f35b34801561025a57600080fd5b5061027560048036038101906102709190611c74565b610cbf565b005b34801561028357600080fd5b5061029e60048036038101906102999190611cd0565b610f86565b005b6002818051602081018201805184825260208301602085012081835280955050505050506000915090508060000160009054906101000a900473ffffffffffffffffffffffffffffffffffffffff16908060010154908060020154908060030160009054906101000a900460ff169080600401805461031e90611d6e565b80601f016020809104026020016040519081016040528092919081815260200182805461034a90611d6e565b80156103975780601f1061036c57610100808354040283529160200191610397565b820191906000526020600020905b81548152906001019060200180831161037a57829003601f168201915b5050505050905085565b600360009054906101000a900473ffffffffffffffffffffffffffffffffffffffff1673ffffffffffffffffffffffffffffffffffffffff163373ffffffffffffffffffffffffffffffffffffffff16146103fb57600080fd5b6000479050600360009054906101000a900473ffffffffffffffffffffffffffffffffffffffff1673ffffffffffffffffffffffffffffffffffffffff166108fc829081150290604051600060405180830381858888f19350505050158015610468573d6000803e3d6000fd5b5050565b610474611426565b6002826040516104849190611ddc565b90815260200160405180910390206040518060e00160405290816000820160009054906101000a900473ffffffffffffffffffffffffffffffffffffffff1673ffffffffffffffffffffffffffffffffffffffff1673ffffffffffffffffffffffffffffffffffffffff16815260200160018201548152602001600282015481526020016003820160009054906101000a900460ff1615151515815260200160048201805461053290611d6e565b80601f016020809104026020016040519081016040528092919081815260200182805461055e90611d6e565b80156105ab5780601f10610580576101008083540402835291602001916105ab565b820191906000526020600020905b81548152906001019060200180831161058e57829003601f168201915b5050505050815260200160058201805480602002602001604051908101604052809291908181526020016000905b828210156106fd578382906000526020600020906003020160405180606001604052908160008201805461060c90611d6e565b80601f016020809104026020016040519081016040528092919081815260200182805461063890611d6e565b80156106855780601f1061065a57610100808354040283529160200191610685565b820191906000526020600020905b81548152906001019060200180831161066857829003601f168201915b505050505081526020016001820160009054906101000a900473ffffffffffffffffffffffffffffffffffffffff1673ffffffffffffffffffffffffffffffffffffffff1673ffffffffffffffffffffffffffffffffffffffff168152602001600282015481525050815260200190600101906105d9565b50505050815260200160068201805480602002602001604051908101604052809291908181526020016000905b828210156107d757838290600052602060002090600302016040518060600160405290816000820160009054906101000a900473ffffffffffffffffffffffffffffffffffffffff1673ffffffffffffffffffffffffffffffffffffffff1673ffffffffffffffffffffffffffffffffffffffff168152602001600182015481526020016002820160009054906101000a900460ff1615151515815250508152602001906001019061072a565b50505050815250509050919050565b6002600054141561082c576040517f08c379a000000000000000000000000000000000000000000000000000000000815260040161082390611e3f565b60405180910390fd5b600260008190555060003411610877576040517f08c379a000000000000000000000000000000000000000000000000000000000815260040161086e90611eab565b60405180910390fd5b6002816040516108879190611ddc565b908152602001604051809103902060060160405180606001604052803373ffffffffffffffffffffffffffffffffffffffff16815260200134815260200160001515815250908060018154018082558091505060019003906000526020600020906003020160009091909190915060008201518160000160006101000a81548173ffffffffffffffffffffffffffffffffffffffff021916908373ffffffffffffffffffffffffffffffffffffffff1602179055506020820151816001015560408201518160020160006101000a81548160ff021916908315150217905550505061099c3460028360405161097c9190611ddc565b9081526020016040518091039020600201546111b890919063ffffffff16565b6002826040516109ac9190611ddc565b908152602001604051809103902060020181905550600060016002836040516109d59190611ddc565b9081526020016040518091039020600601805490506109f49190611efa565b90507f45108bdd8da6a58fa5bd714c2f880c3cc2b132454970c047db94b94c6c8337c682823334604051610a2b9493929190611f2e565b60405180910390a150600160008190555050565b816000600282604051610a529190611ddc565b90815260200160405180910390206001015414610a6e57600080fd5b610a7883836111ce565b610a81836107e6565b505050565b600360149054906101000a900460ff1681565b60026000541415610adf576040517f08c379a0000000000000000000000000000000000000000000000000000000008152600401610ad690611e3f565b60405180910390fd5b60026000819055506001600283604051610af99190611ddc565b908152602001604051809103902060030160006101000a81548160ff021916908315150217905550600282604051610b319190611ddc565b908152602001604051809103902060050160405180606001604052808381526020013373ffffffffffffffffffffffffffffffffffffffff1681526020014281525090806001815401808255809150506001900390600052602060002090600302016000909190919091506000820151816000019080519060200190610bb892919061147b565b5060208201518160010160006101000a81548173ffffffffffffffffffffffffffffffffffffffff021916908373ffffffffffffffffffffffffffffffffffffffff16021790555060408201518160020155505060006001600284604051610c209190611ddc565b908152602001604051809103902060050180549050610c3f9190611efa565b90507fb1048029bb315f71c80b34359da7aac9e59ebe8dcac0aca7fc9661eb03409e8783338484604051610c769493929190611f7a565b60405180910390a15060016000819055505050565b60015481565b600360009054906101000a900473ffffffffffffffffffffffffffffffffffffffff1681565b600047905090565b8181600282604051610cd19190611ddc565b9081526020016040518091039020600601805490508110610cf157600080fd5b8383600282604051610d039190611ddc565b90815260200160405180910390206006018181548110610d2657610d25611fcd565b5b906000526020600020906003020160000160009054906101000a900473ffffffffffffffffffffffffffffffffffffffff1673ffffffffffffffffffffffffffffffffffffffff163373ffffffffffffffffffffffffffffffffffffffff1614610d8f57600080fd5b85600281604051610da09190611ddc565b908152602001604051809103902060030160009054906101000a900460ff1615610dc957600080fd5b8686600282604051610ddb9190611ddc565b90815260200160405180910390206006018181548110610dfe57610dfd611fcd565b5b906000526020600020906003020160020160009054906101000a900460ff1615610e2757600080fd5b88600281604051610e389190611ddc565b9081526020016040518091039020600101544211610e5557600080fd5b60026000541415610e9b576040517f08c379a0000000000000000000000000000000000000000000000000000000008152600401610e9290611e3f565b60405180910390fd5b6002600081905550600060028b604051610eb59190611ddc565b90815260200160405180910390206006018a81548110610ed857610ed7611fcd565b5b9060005260206000209060030201905060018160020160006101000a81548160ff021916908315150217905550610f388b8260000160009054906101000a900473ffffffffffffffffffffffffffffffffffffffff1683600101546112c4565b7f24b27459f3b123dc4dfd5ad5fd352d175e3d730ca102454cc8230d4a7383e9c48b8b604051610f69929190611ffc565b60405180910390a150600160008190555050505050505050505050565b8282600282604051610f989190611ddc565b9081526020016040518091039020600501805490508110610fb857600080fd5b600360009054906101000a900473ffffffffffffffffffffffffffffffffffffffff1673ffffffffffffffffffffffffffffffffffffffff163373ffffffffffffffffffffffffffffffffffffffff161461101257600080fd5b60026000541415611058576040517f08c379a000000000000000000000000000000000000000000000000000000000815260040161104f90611e3f565b60405180910390fd5b600260008190555060006002866040516110729190611ddc565b9081526020016040518091039020600501858154811061109557611094611fcd565b5b90600052602060002090600302019050600084116110e8576040517f08c379a00000000000000000000000000000000000000000000000000000000081526004016110df90612078565b60405180910390fd5b6000606485600a6110f99190612098565b6111039190612121565b905061113287600360009054906101000a900473ffffffffffffffffffffffffffffffffffffffff16836112c4565b61116c878360010160009054906101000a900473ffffffffffffffffffffffffffffffffffffffff1683886111679190611efa565b6112c4565b7f5e9b6a36c72698f464a67eddb8eb73eaa4d41f85291d7bdc50480bf56e2f9fbc87878760405161119f93929190612152565b60405180910390a1505060016000819055505050505050565b600081836111c69190612190565b905092915050565b60006002836040516111e09190611ddc565b90815260200160405180910390209050338160000160006101000a81548173ffffffffffffffffffffffffffffffffffffffff021916908373ffffffffffffffffffffffffffffffffffffffff16021790555062069780426112429190612190565b81600101819055508181600401908051906020019061126292919061147b565b50611278600180546111b890919063ffffffff16565b6001819055507f7e94affa6eb5df8bf37a4ec19ffde47e22167bea2deba4db09ee08df91d236ea83338484600101546040516112b79493929190611f7a565b60405180910390a1505050565b60008111611307576040517f08c379a00000000000000000000000000000000000000000000000000000000081526004016112fe90612258565b60405180910390fd5b806002846040516113189190611ddc565b908152602001604051809103902060020154101561136b576040517f08c379a0000000000000000000000000000000000000000000000000000000008152600401611362906122c4565b60405180910390fd5b61139f8160028560405161137f9190611ddc565b90815260200160405180910390206002015461141090919063ffffffff16565b6002846040516113af9190611ddc565b9081526020016040518091039020600201819055508173ffffffffffffffffffffffffffffffffffffffff166108fc829081150290604051600060405180830381858888f1935050505015801561140a573d6000803e3d6000fd5b50505050565b6000818361141e9190611efa565b905092915050565b6040518060e00160405280600073ffffffffffffffffffffffffffffffffffffffff16815260200160008152602001600081526020016000151581526020016060815260200160608152602001606081525090565b82805461148790611d6e565b90600052602060002090601f0160209004810192826114a957600085556114f0565b82601f106114c257805160ff19168380011785556114f0565b828001600101855582156114f0579182015b828111156114ef5782518255916020019190600101906114d4565b5b5090506114fd9190611501565b5090565b5b8082111561151a576000816000905550600101611502565b5090565b6000604051905090565b600080fd5b600080fd5b600080fd5b600080fd5b6000601f19601f8301169050919050565b7f4e487b7100000000000000000000000000000000000000000000000000000000600052604160045260246000fd5b6115858261153c565b810181811067ffffffffffffffff821117156115a4576115a361154d565b5b80604052505050565b60006115b761151e565b90506115c3828261157c565b919050565b600067ffffffffffffffff8211156115e3576115e261154d565b5b6115ec8261153c565b9050602081019050919050565b82818337600083830152505050565b600061161b611616846115c8565b6115ad565b90508281526020810184848401111561163757611636611537565b5b6116428482856115f9565b509392505050565b600082601f83011261165f5761165e611532565b5b813561166f848260208601611608565b91505092915050565b60006020828403121561168e5761168d611528565b5b600082013567ffffffffffffffff8111156116ac576116ab61152d565b5b6116b88482850161164a565b91505092915050565b600073ffffffffffffffffffffffffffffffffffffffff82169050919050565b60006116ec826116c1565b9050919050565b6116fc816116e1565b82525050565b6000819050919050565b61171581611702565b82525050565b60008115159050919050565b6117308161171b565b82525050565b600081519050919050565b600082825260208201905092915050565b60005b83811015611770578082015181840152602081019050611755565b8381111561177f576000848401525b50505050565b600061179082611736565b61179a8185611741565b93506117aa818560208601611752565b6117b38161153c565b840191505092915050565b600060a0820190506117d360008301886116f3565b6117e0602083018761170c565b6117ed604083018661170c565b6117fa6060830185611727565b818103608083015261180c8184611785565b90509695505050505050565b611821816116e1565b82525050565b61183081611702565b82525050565b61183f8161171b565b82525050565b600082825260208201905092915050565b600061186182611736565b61186b8185611845565b935061187b818560208601611752565b6118848161153c565b840191505092915050565b600081519050919050565b600082825260208201905092915050565b6000819050602082019050919050565b600060608301600083015184820360008601526118d88282611856565b91505060208301516118ed6020860182611818565b5060408301516119006040860182611827565b508091505092915050565b600061191783836118bb565b905092915050565b6000602082019050919050565b60006119378261188f565b611941818561189a565b935083602082028501611953856118ab565b8060005b8581101561198f5784840389528151611970858261190b565b945061197b8361191f565b925060208a01995050600181019050611957565b50829750879550505050505092915050565b600081519050919050565b600082825260208201905092915050565b6000819050602082019050919050565b6060820160008201516119e36000850182611818565b5060208201516119f66020850182611827565b506040820151611a096040850182611836565b50505050565b6000611a1b83836119cd565b60608301905092915050565b6000602082019050919050565b6000611a3f826119a1565b611a4981856119ac565b9350611a54836119bd565b8060005b83811015611a85578151611a6c8882611a0f565b9750611a7783611a27565b925050600181019050611a58565b5085935050505092915050565b600060e083016000830151611aaa6000860182611818565b506020830151611abd6020860182611827565b506040830151611ad06040860182611827565b506060830151611ae36060860182611836565b5060808301518482036080860152611afb8282611856565b91505060a083015184820360a0860152611b15828261192c565b91505060c083015184820360c0860152611b2f8282611a34565b9150508091505092915050565b60006020820190508181036000830152611b568184611a92565b905092915050565b60008060408385031215611b7557611b74611528565b5b600083013567ffffffffffffffff811115611b9357611b9261152d565b5b611b9f8582860161164a565b925050602083013567ffffffffffffffff811115611bc057611bbf61152d565b5b611bcc8582860161164a565b9150509250929050565b6000602082019050611beb6000830184611727565b92915050565b6000602082019050611c06600083018461170c565b92915050565b6000611c17826116c1565b9050919050565b611c2781611c0c565b82525050565b6000602082019050611c426000830184611c1e565b92915050565b611c5181611702565b8114611c5c57600080fd5b50565b600081359050611c6e81611c48565b92915050565b60008060408385031215611c8b57611c8a611528565b5b600083013567ffffffffffffffff811115611ca957611ca861152d565b5b611cb58582860161164a565b9250506020611cc685828601611c5f565b9150509250929050565b600080600060608486031215611ce957611ce8611528565b5b600084013567ffffffffffffffff811115611d0757611d0661152d565b5b611d138682870161164a565b9350506020611d2486828701611c5f565b9250506040611d3586828701611c5f565b9150509250925092565b7f4e487b7100000000000000000000000000000000000000000000000000000000600052602260045260246000fd5b60006002820490506001821680611d8657607f821691505b60208210811415611d9a57611d99611d3f565b5b50919050565b600081905092915050565b6000611db682611736565b611dc08185611da0565b9350611dd0818560208601611752565b80840191505092915050565b6000611de88284611dab565b915081905092915050565b7f5265656e7472616e637947756172643a207265656e7472616e742063616c6c00600082015250565b6000611e29601f83611741565b9150611e3482611df3565b602082019050919050565b60006020820190508181036000830152611e5881611e1c565b9050919050565b7f416d6f756e7420696e666572696f7220746f20302e0000000000000000000000600082015250565b6000611e95601583611741565b9150611ea082611e5f565b602082019050919050565b60006020820190508181036000830152611ec481611e88565b9050919050565b7f4e487b7100000000000000000000000000000000000000000000000000000000600052601160045260246000fd5b6000611f0582611702565b9150611f1083611702565b925082821015611f2357611f22611ecb565b5b828203905092915050565b60006080820190508181036000830152611f488187611785565b9050611f57602083018661170c565b611f6460408301856116f3565b611f71606083018461170c565b95945050505050565b60006080820190508181036000830152611f948187611785565b9050611fa360208301866116f3565b8181036040830152611fb58185611785565b9050611fc4606083018461170c565b95945050505050565b7f4e487b7100000000000000000000000000000000000000000000000000000000600052603260045260246000fd5b600060408201905081810360008301526120168185611785565b9050612025602083018461170c565b9392505050565b7f546f6b656e20616d6f756e7420697320696e666572696f7220746f20302e0000600082015250565b6000612062601e83611741565b915061206d8261202c565b602082019050919050565b6000602082019050818103600083015261209181612055565b9050919050565b60006120a382611702565b91506120ae83611702565b9250817fffffffffffffffffffffffffffffffffffffffffffffffffffffffffffffffff04831182151516156120e7576120e6611ecb565b5b828202905092915050565b7f4e487b7100000000000000000000000000000000000000000000000000000000600052601260045260246000fd5b600061212c82611702565b915061213783611702565b925082612147576121466120f2565b5b828204905092915050565b6000606082019050818103600083015261216c8186611785565b905061217b602083018561170c565b612188604083018461170c565b949350505050565b600061219b82611702565b91506121a683611702565b9250827fffffffffffffffffffffffffffffffffffffffffffffffffffffffffffffffff038211156121db576121da611ecb565b5b828201905092915050565b7f5472616e73616374696f6e20616d6f756e7420696e666572696f72206f72206560008201527f7175616c20746f20300000000000000000000000000000000000000000000000602082015250565b6000612242602983611741565b915061224d826121e6565b604082019050919050565b6000602082019050818103600083015261227181612235565b9050919050565b7f4e6f7420656e6f756768206d6f6e657920746f207472616e736163742e000000600082015250565b60006122ae601d83611741565b91506122b982612278565b602082019050919050565b600060208201905081810360008301526122dd816122a1565b905091905056fea2646970667358221220abde902f1250773b9460dbd09cfadd02d5ba371b03413131c4c87e2f564e363664736f6c63430008090033",
  "linkReferences": {},
  "deployedLinkReferences": {}
}