{
  "_format": "hh-sol-artifact-1",
  "contractName": "Bounties",
  "sourceName": "contracts/bounties.sol",
  "abi": [
    {
      "inputs": [],
      "stateMutability": "nonpayable",
      "type": "constructor"
    },
    {
      "anonymous": false,
      "inputs": [
        {
          "indexed": false,
          "internalType": "string",
          "name": "_bountyId",
          "type": "string"
        },
        {
          "indexed": false,
          "internalType": "uint256",
          "name": "_fulfillmentId",
          "type": "uint256"
        },
        {
          "indexed": false,
          "internalType": "uint256",
          "name": "_tokenAmount",
          "type": "uint256"
        }
      ],
      "name": "AnswerAccepted",
      "type": "event"
    },
    {
      "anonymous": false,
      "inputs": [
        {
          "indexed": false,
          "internalType": "string",
          "name": "_bountyId",
          "type": "string"
        },
        {
          "indexed": false,
          "internalType": "address payable",
          "name": "_sender",
          "type": "address"
        },
        {
          "indexed": false,
          "internalType": "string",
          "name": "_answerHash",
          "type": "string"
        },
        {
          "indexed": false,
          "internalType": "uint256",
          "name": "numFulfillments",
          "type": "uint256"
        }
      ],
      "name": "BountyFulfilled",
      "type": "event"
    },
    {
      "anonymous": false,
      "inputs": [
        {
          "indexed": false,
          "internalType": "string",
          "name": "_bountyId",
          "type": "string"
        },
        {
          "indexed": false,
          "internalType": "address payable",
          "name": "_issuer",
          "type": "address"
        },
        {
          "indexed": false,
          "internalType": "string",
          "name": "_questionHash",
          "type": "string"
        },
        {
          "indexed": false,
          "internalType": "uint256",
          "name": "_deadline",
          "type": "uint256"
        }
      ],
      "name": "BountyIssued",
      "type": "event"
    },
    {
      "anonymous": false,
      "inputs": [
        {
          "indexed": false,
          "internalType": "string",
          "name": "_bountyId",
          "type": "string"
        },
        {
          "indexed": false,
          "internalType": "uint256",
          "name": "_contributionId",
          "type": "uint256"
        },
        {
          "indexed": false,
          "internalType": "address payable",
          "name": "_contributor",
          "type": "address"
        },
        {
          "indexed": false,
          "internalType": "uint256",
          "name": "_amount",
          "type": "uint256"
        }
      ],
      "name": "ContributionAdded",
      "type": "event"
    },
    {
      "anonymous": false,
      "inputs": [
        {
          "indexed": false,
          "internalType": "string",
          "name": "_bountyId",
          "type": "string"
        },
        {
          "indexed": false,
          "internalType": "uint256",
          "name": "_contributionId",
          "type": "uint256"
        }
      ],
      "name": "ContributionRefunded",
      "type": "event"
    },
    {
      "inputs": [
        {
          "internalType": "string",
          "name": "_bountyId",
          "type": "string"
        },
        {
          "internalType": "uint256",
          "name": "_answerId",
          "type": "uint256"
        },
        {
          "internalType": "uint256",
          "name": "_tokenAmount",
          "type": "uint256"
        }
      ],
      "name": "acceptAnswer",
      "outputs": [],
      "stateMutability": "nonpayable",
      "type": "function"
    },
    {
      "inputs": [
        {
          "internalType": "string",
          "name": "_bountyId",
          "type": "string"
        },
        {
          "internalType": "string",
          "name": "_answerHash",
          "type": "string"
        }
      ],
      "name": "answerBounty",
      "outputs": [],
      "stateMutability": "nonpayable",
      "type": "function"
    },
    {
      "inputs": [
        {
          "internalType": "string",
          "name": "",
          "type": "string"
        }
      ],
      "name": "bounties",
      "outputs": [
        {
          "internalType": "address payable",
          "name": "issuer",
          "type": "address"
        },
        {
          "internalType": "uint256",
          "name": "deadline",
          "type": "uint256"
        },
        {
          "internalType": "uint256",
          "name": "balance",
          "type": "uint256"
        },
        {
          "internalType": "bool",
          "name": "hasBeenAnswered",
          "type": "bool"
        },
        {
          "internalType": "string",
          "name": "questionHash",
          "type": "string"
        }
      ],
      "stateMutability": "view",
      "type": "function"
    },
    {
      "inputs": [
        {
          "internalType": "string",
          "name": "_bountyId",
          "type": "string"
        }
      ],
      "name": "contribute",
      "outputs": [],
      "stateMutability": "payable",
      "type": "function"
    },
    {
      "inputs": [
        {
          "internalType": "string",
          "name": "_bountyId",
          "type": "string"
        }
      ],
      "name": "getBounty",
      "outputs": [
        {
          "components": [
            {
              "internalType": "address payable",
              "name": "issuer",
              "type": "address"
            },
            {
              "internalType": "uint256",
              "name": "deadline",
              "type": "uint256"
            },
            {
              "internalType": "uint256",
              "name": "balance",
              "type": "uint256"
            },
            {
              "internalType": "bool",
              "name": "hasBeenAnswered",
              "type": "bool"
            },
            {
              "internalType": "string",
              "name": "questionHash",
              "type": "string"
            },
            {
              "components": [
                {
                  "internalType": "string",
                  "name": "answerId",
                  "type": "string"
                },
                {
                  "internalType": "address payable",
                  "name": "submitter",
                  "type": "address"
                },
                {
                  "internalType": "uint256",
                  "name": "timestamp",
                  "type": "uint256"
                }
              ],
              "internalType": "struct Bounties.Fulfillment[]",
              "name": "fulfillments",
              "type": "tuple[]"
            },
            {
              "components": [
                {
                  "internalType": "address payable",
                  "name": "contributor",
                  "type": "address"
                },
                {
                  "internalType": "uint256",
                  "name": "amount",
                  "type": "uint256"
                },
                {
                  "internalType": "bool",
                  "name": "refunded",
                  "type": "bool"
                }
              ],
              "internalType": "struct Bounties.Contribution[]",
              "name": "contributions",
              "type": "tuple[]"
            }
          ],
          "internalType": "struct Bounties.Bounty",
          "name": "",
          "type": "tuple"
        }
      ],
      "stateMutability": "view",
      "type": "function"
    },
    {
      "inputs": [],
      "name": "getTotalSupply",
      "outputs": [
        {
          "internalType": "uint256",
          "name": "",
          "type": "uint256"
        }
      ],
      "stateMutability": "view",
      "type": "function"
    },
    {
      "inputs": [
        {
          "internalType": "string",
          "name": "_bountyId",
          "type": "string"
        },
        {
          "internalType": "string",
          "name": "_questionHash",
          "type": "string"
        }
      ],
      "name": "issueBountyAndContribute",
      "outputs": [],
      "stateMutability": "payable",
      "type": "function"
    },
    {
      "inputs": [],
      "name": "numBounties",
      "outputs": [
        {
          "internalType": "uint256",
          "name": "",
          "type": "uint256"
        }
      ],
      "stateMutability": "view",
      "type": "function"
    },
    {
      "inputs": [],
      "name": "owner",
      "outputs": [
        {
          "internalType": "address",
          "name": "",
          "type": "address"
        }
      ],
      "stateMutability": "view",
      "type": "function"
    },
    {
      "inputs": [
        {
          "internalType": "string",
          "name": "_bountyId",
          "type": "string"
        },
        {
          "internalType": "uint256",
          "name": "_contributionId",
          "type": "uint256"
        }
      ],
      "name": "refundContribution",
      "outputs": [],
      "stateMutability": "nonpayable",
      "type": "function"
    },
    {
      "inputs": [
        {
          "internalType": "address",
          "name": "_validator",
          "type": "address"
        }
      ],
      "name": "setValidator",
      "outputs": [],
      "stateMutability": "nonpayable",
      "type": "function"
    },
    {
      "inputs": [],
      "name": "validator",
      "outputs": [
        {
          "internalType": "address",
          "name": "",
          "type": "address"
        }
      ],
      "stateMutability": "view",
      "type": "function"
    },
    {
      "inputs": [],
      "name": "withdraw",
      "outputs": [],
      "stateMutability": "nonpayable",
      "type": "function"
    }
  ],
  "bytecode": "0x608060405234801561001057600080fd5b50600160008190555033600360006101000a81548173ffffffffffffffffffffffffffffffffffffffff021916908373ffffffffffffffffffffffffffffffffffffffff16021790555033600460006101000a81548173ffffffffffffffffffffffffffffffffffffffff021916908373ffffffffffffffffffffffffffffffffffffffff16021790555061244d806100aa6000396000f3fe6080604052600436106100c25760003560e01c80635dd15e891161007f5780638da5cb5b116100595780638da5cb5b1461023c578063c4e41b2214610267578063e519590914610292578063f47ef942146102bb576100c2565b80635dd15e89146101cc5780637a18b5ff146101e857806388db0f5214610211576100c2565b80631327d3d8146100c75780633a5381b5146100f05780633cbef3731461011b5780633ccfd60b1461015c57806357f56061146101735780635c43217b146101b0575b600080fd5b3480156100d357600080fd5b506100ee60048036038101906100e99190611685565b6102e4565b005b3480156100fc57600080fd5b50610105610382565b60405161011291906116c1565b60405180910390f35b34801561012757600080fd5b50610142600480360381019061013d9190611822565b6103a8565b604051610153959493929190611948565b60405180910390f35b34801561016857600080fd5b506101716104a9565b005b34801561017f57600080fd5b5061019a60048036038101906101959190611822565b610574565b6040516101a79190611cc6565b60405180910390f35b6101ca60048036038101906101c59190611822565b6108ee565b005b6101e660048036038101906101e19190611ce8565b610b47565b005b3480156101f457600080fd5b5061020f600480360381019061020a9190611ce8565b610b8e565b005b34801561021d57600080fd5b50610226610d80565b6040516102339190611d60565b60405180910390f35b34801561024857600080fd5b50610251610d86565b60405161025e91906116c1565b60405180910390f35b34801561027357600080fd5b5061027c610dac565b6040516102899190611d60565b60405180910390f35b34801561029e57600080fd5b506102b960048036038101906102b49190611da7565b610db4565b005b3480156102c757600080fd5b506102e260048036038101906102dd9190611e03565b61107b565b005b600360009054906101000a900473ffffffffffffffffffffffffffffffffffffffff1673ffffffffffffffffffffffffffffffffffffffff163373ffffffffffffffffffffffffffffffffffffffff161461033e57600080fd5b80600360006101000a81548173ffffffffffffffffffffffffffffffffffffffff021916908373ffffffffffffffffffffffffffffffffffffffff16021790555050565b600360009054906101000a900473ffffffffffffffffffffffffffffffffffffffff1681565b6002818051602081018201805184825260208301602085012081835280955050505050506000915090508060000160009054906101000a900473ffffffffffffffffffffffffffffffffffffffff16908060010154908060020154908060030160009054906101000a900460ff169080600401805461042690611ea1565b80601f016020809104026020016040519081016040528092919081815260200182805461045290611ea1565b801561049f5780601f106104745761010080835404028352916020019161049f565b820191906000526020600020905b81548152906001019060200180831161048257829003601f168201915b5050505050905085565b600360009054906101000a900473ffffffffffffffffffffffffffffffffffffffff1673ffffffffffffffffffffffffffffffffffffffff163373ffffffffffffffffffffffffffffffffffffffff161461050357600080fd5b6000479050600460009054906101000a900473ffffffffffffffffffffffffffffffffffffffff1673ffffffffffffffffffffffffffffffffffffffff166108fc829081150290604051600060405180830381858888f19350505050158015610570573d6000803e3d6000fd5b5050565b61057c61151b565b60028260405161058c9190611f0f565b90815260200160405180910390206040518060e00160405290816000820160009054906101000a900473ffffffffffffffffffffffffffffffffffffffff1673ffffffffffffffffffffffffffffffffffffffff1673ffffffffffffffffffffffffffffffffffffffff16815260200160018201548152602001600282015481526020016003820160009054906101000a900460ff1615151515815260200160048201805461063a90611ea1565b80601f016020809104026020016040519081016040528092919081815260200182805461066690611ea1565b80156106b35780601f10610688576101008083540402835291602001916106b3565b820191906000526020600020905b81548152906001019060200180831161069657829003601f168201915b5050505050815260200160058201805480602002602001604051908101604052809291908181526020016000905b82821015610805578382906000526020600020906003020160405180606001604052908160008201805461071490611ea1565b80601f016020809104026020016040519081016040528092919081815260200182805461074090611ea1565b801561078d5780601f106107625761010080835404028352916020019161078d565b820191906000526020600020905b81548152906001019060200180831161077057829003601f168201915b505050505081526020016001820160009054906101000a900473ffffffffffffffffffffffffffffffffffffffff1673ffffffffffffffffffffffffffffffffffffffff1673ffffffffffffffffffffffffffffffffffffffff168152602001600282015481525050815260200190600101906106e1565b50505050815260200160068201805480602002602001604051908101604052809291908181526020016000905b828210156108df57838290600052602060002090600302016040518060600160405290816000820160009054906101000a900473ffffffffffffffffffffffffffffffffffffffff1673ffffffffffffffffffffffffffffffffffffffff1673ffffffffffffffffffffffffffffffffffffffff168152602001600182015481526020016002820160009054906101000a900460ff16151515158152505081526020019060010190610832565b50505050815250509050919050565b60026000541415610934576040517f08c379a000000000000000000000000000000000000000000000000000000000815260040161092b90611f72565b60405180910390fd5b60026000819055506000341161097f576040517f08c379a000000000000000000000000000000000000000000000000000000000815260040161097690611fde565b60405180910390fd5b60028160405161098f9190611f0f565b908152602001604051809103902060060160405180606001604052803373ffffffffffffffffffffffffffffffffffffffff16815260200134815260200160001515815250908060018154018082558091505060019003906000526020600020906003020160009091909190915060008201518160000160006101000a81548173ffffffffffffffffffffffffffffffffffffffff021916908373ffffffffffffffffffffffffffffffffffffffff1602179055506020820151816001015560408201518160020160006101000a81548160ff0219169083151502179055505050610aa434600283604051610a849190611f0f565b9081526020016040518091039020600201546112ad90919063ffffffff16565b600282604051610ab49190611f0f565b90815260200160405180910390206002018190555060006001600283604051610add9190611f0f565b908152602001604051809103902060060180549050610afc919061202d565b90507f45108bdd8da6a58fa5bd714c2f880c3cc2b132454970c047db94b94c6c8337c682823334604051610b339493929190612061565b60405180910390a150600160008190555050565b816000600282604051610b5a9190611f0f565b90815260200160405180910390206001015414610b7657600080fd5b610b8083836112c3565b610b89836108ee565b505050565b60026000541415610bd4576040517f08c379a0000000000000000000000000000000000000000000000000000000008152600401610bcb90611f72565b60405180910390fd5b60026000819055506001600283604051610bee9190611f0f565b908152602001604051809103902060030160006101000a81548160ff021916908315150217905550600282604051610c269190611f0f565b908152602001604051809103902060050160405180606001604052808381526020013373ffffffffffffffffffffffffffffffffffffffff1681526020014281525090806001815401808255809150506001900390600052602060002090600302016000909190919091506000820151816000019080519060200190610cad929190611570565b5060208201518160010160006101000a81548173ffffffffffffffffffffffffffffffffffffffff021916908373ffffffffffffffffffffffffffffffffffffffff16021790555060408201518160020155505060006001600284604051610d159190611f0f565b908152602001604051809103902060050180549050610d34919061202d565b90507fb1048029bb315f71c80b34359da7aac9e59ebe8dcac0aca7fc9661eb03409e8783338484604051610d6b94939291906120ad565b60405180910390a15060016000819055505050565b60015481565b600460009054906101000a900473ffffffffffffffffffffffffffffffffffffffff1681565b600047905090565b8181600282604051610dc69190611f0f565b9081526020016040518091039020600601805490508110610de657600080fd5b8383600282604051610df89190611f0f565b90815260200160405180910390206006018181548110610e1b57610e1a612100565b5b906000526020600020906003020160000160009054906101000a900473ffffffffffffffffffffffffffffffffffffffff1673ffffffffffffffffffffffffffffffffffffffff163373ffffffffffffffffffffffffffffffffffffffff1614610e8457600080fd5b85600281604051610e959190611f0f565b908152602001604051809103902060030160009054906101000a900460ff1615610ebe57600080fd5b8686600282604051610ed09190611f0f565b90815260200160405180910390206006018181548110610ef357610ef2612100565b5b906000526020600020906003020160020160009054906101000a900460ff1615610f1c57600080fd5b88600281604051610f2d9190611f0f565b9081526020016040518091039020600101544211610f4a57600080fd5b60026000541415610f90576040517f08c379a0000000000000000000000000000000000000000000000000000000008152600401610f8790611f72565b60405180910390fd5b6002600081905550600060028b604051610faa9190611f0f565b90815260200160405180910390206006018a81548110610fcd57610fcc612100565b5b9060005260206000209060030201905060018160020160006101000a81548160ff02191690831515021790555061102d8b8260000160009054906101000a900473ffffffffffffffffffffffffffffffffffffffff1683600101546113b9565b7f24b27459f3b123dc4dfd5ad5fd352d175e3d730ca102454cc8230d4a7383e9c48b8b60405161105e92919061212f565b60405180910390a150600160008190555050505050505050505050565b828260028260405161108d9190611f0f565b90815260200160405180910390206005018054905081106110ad57600080fd5b600360009054906101000a900473ffffffffffffffffffffffffffffffffffffffff1673ffffffffffffffffffffffffffffffffffffffff163373ffffffffffffffffffffffffffffffffffffffff161461110757600080fd5b6002600054141561114d576040517f08c379a000000000000000000000000000000000000000000000000000000000815260040161114490611f72565b60405180910390fd5b600260008190555060006002866040516111679190611f0f565b9081526020016040518091039020600501858154811061118a57611189612100565b5b90600052602060002090600302019050600084116111dd576040517f08c379a00000000000000000000000000000000000000000000000000000000081526004016111d4906121ab565b60405180910390fd5b6000606485600a6111ee91906121cb565b6111f89190612254565b905061122787600460009054906101000a900473ffffffffffffffffffffffffffffffffffffffff16836113b9565b611261878360010160009054906101000a900473ffffffffffffffffffffffffffffffffffffffff16838861125c919061202d565b6113b9565b7f5e9b6a36c72698f464a67eddb8eb73eaa4d41f85291d7bdc50480bf56e2f9fbc87878760405161129493929190612285565b60405180910390a1505060016000819055505050505050565b600081836112bb91906122c3565b905092915050565b60006002836040516112d59190611f0f565b90815260200160405180910390209050338160000160006101000a81548173ffffffffffffffffffffffffffffffffffffffff021916908373ffffffffffffffffffffffffffffffffffffffff160217905550620697804261133791906122c3565b816001018190555081816004019080519060200190611357929190611570565b5061136d600180546112ad90919063ffffffff16565b6001819055507f7e94affa6eb5df8bf37a4ec19ffde47e22167bea2deba4db09ee08df91d236ea83338484600101546040516113ac94939291906120ad565b60405180910390a1505050565b600081116113fc576040517f08c379a00000000000000000000000000000000000000000000000000000000081526004016113f39061238b565b60405180910390fd5b8060028460405161140d9190611f0f565b9081526020016040518091039020600201541015611460576040517f08c379a0000000000000000000000000000000000000000000000000000000008152600401611457906123f7565b60405180910390fd5b611494816002856040516114749190611f0f565b90815260200160405180910390206002015461150590919063ffffffff16565b6002846040516114a49190611f0f565b9081526020016040518091039020600201819055508173ffffffffffffffffffffffffffffffffffffffff166108fc829081150290604051600060405180830381858888f193505050501580156114ff573d6000803e3d6000fd5b50505050565b60008183611513919061202d565b905092915050565b6040518060e00160405280600073ffffffffffffffffffffffffffffffffffffffff16815260200160008152602001600081526020016000151581526020016060815260200160608152602001606081525090565b82805461157c90611ea1565b90600052602060002090601f01602090048101928261159e57600085556115e5565b82601f106115b757805160ff19168380011785556115e5565b828001600101855582156115e5579182015b828111156115e45782518255916020019190600101906115c9565b5b5090506115f291906115f6565b5090565b5b8082111561160f5760008160009055506001016115f7565b5090565b6000604051905090565b600080fd5b600080fd5b600073ffffffffffffffffffffffffffffffffffffffff82169050919050565b600061165282611627565b9050919050565b61166281611647565b811461166d57600080fd5b50565b60008135905061167f81611659565b92915050565b60006020828403121561169b5761169a61161d565b5b60006116a984828501611670565b91505092915050565b6116bb81611647565b82525050565b60006020820190506116d660008301846116b2565b92915050565b600080fd5b600080fd5b6000601f19601f8301169050919050565b7f4e487b7100000000000000000000000000000000000000000000000000000000600052604160045260246000fd5b61172f826116e6565b810181811067ffffffffffffffff8211171561174e5761174d6116f7565b5b80604052505050565b6000611761611613565b905061176d8282611726565b919050565b600067ffffffffffffffff82111561178d5761178c6116f7565b5b611796826116e6565b9050602081019050919050565b82818337600083830152505050565b60006117c56117c084611772565b611757565b9050828152602081018484840111156117e1576117e06116e1565b5b6117ec8482856117a3565b509392505050565b600082601f830112611809576118086116dc565b5b81356118198482602086016117b2565b91505092915050565b6000602082840312156118385761183761161d565b5b600082013567ffffffffffffffff81111561185657611855611622565b5b611862848285016117f4565b91505092915050565b600061187682611627565b9050919050565b6118868161186b565b82525050565b6000819050919050565b61189f8161188c565b82525050565b60008115159050919050565b6118ba816118a5565b82525050565b600081519050919050565b600082825260208201905092915050565b60005b838110156118fa5780820151818401526020810190506118df565b83811115611909576000848401525b50505050565b600061191a826118c0565b61192481856118cb565b93506119348185602086016118dc565b61193d816116e6565b840191505092915050565b600060a08201905061195d600083018861187d565b61196a6020830187611896565b6119776040830186611896565b61198460608301856118b1565b8181036080830152611996818461190f565b90509695505050505050565b6119ab8161186b565b82525050565b6119ba8161188c565b82525050565b6119c9816118a5565b82525050565b600082825260208201905092915050565b60006119eb826118c0565b6119f581856119cf565b9350611a058185602086016118dc565b611a0e816116e6565b840191505092915050565b600081519050919050565b600082825260208201905092915050565b6000819050602082019050919050565b60006060830160008301518482036000860152611a6282826119e0565b9150506020830151611a7760208601826119a2565b506040830151611a8a60408601826119b1565b508091505092915050565b6000611aa18383611a45565b905092915050565b6000602082019050919050565b6000611ac182611a19565b611acb8185611a24565b935083602082028501611add85611a35565b8060005b85811015611b195784840389528151611afa8582611a95565b9450611b0583611aa9565b925060208a01995050600181019050611ae1565b50829750879550505050505092915050565b600081519050919050565b600082825260208201905092915050565b6000819050602082019050919050565b606082016000820151611b6d60008501826119a2565b506020820151611b8060208501826119b1565b506040820151611b9360408501826119c0565b50505050565b6000611ba58383611b57565b60608301905092915050565b6000602082019050919050565b6000611bc982611b2b565b611bd38185611b36565b9350611bde83611b47565b8060005b83811015611c0f578151611bf68882611b99565b9750611c0183611bb1565b925050600181019050611be2565b5085935050505092915050565b600060e083016000830151611c3460008601826119a2565b506020830151611c4760208601826119b1565b506040830151611c5a60408601826119b1565b506060830151611c6d60608601826119c0565b5060808301518482036080860152611c8582826119e0565b91505060a083015184820360a0860152611c9f8282611ab6565b91505060c083015184820360c0860152611cb98282611bbe565b9150508091505092915050565b60006020820190508181036000830152611ce08184611c1c565b905092915050565b60008060408385031215611cff57611cfe61161d565b5b600083013567ffffffffffffffff811115611d1d57611d1c611622565b5b611d29858286016117f4565b925050602083013567ffffffffffffffff811115611d4a57611d49611622565b5b611d56858286016117f4565b9150509250929050565b6000602082019050611d756000830184611896565b92915050565b611d848161188c565b8114611d8f57600080fd5b50565b600081359050611da181611d7b565b92915050565b60008060408385031215611dbe57611dbd61161d565b5b600083013567ffffffffffffffff811115611ddc57611ddb611622565b5b611de8858286016117f4565b9250506020611df985828601611d92565b9150509250929050565b600080600060608486031215611e1c57611e1b61161d565b5b600084013567ffffffffffffffff811115611e3a57611e39611622565b5b611e46868287016117f4565b9350506020611e5786828701611d92565b9250506040611e6886828701611d92565b9150509250925092565b7f4e487b7100000000000000000000000000000000000000000000000000000000600052602260045260246000fd5b60006002820490506001821680611eb957607f821691505b60208210811415611ecd57611ecc611e72565b5b50919050565b600081905092915050565b6000611ee9826118c0565b611ef38185611ed3565b9350611f038185602086016118dc565b80840191505092915050565b6000611f1b8284611ede565b915081905092915050565b7f5265656e7472616e637947756172643a207265656e7472616e742063616c6c00600082015250565b6000611f5c601f836118cb565b9150611f6782611f26565b602082019050919050565b60006020820190508181036000830152611f8b81611f4f565b9050919050565b7f416d6f756e7420696e666572696f7220746f20302e0000000000000000000000600082015250565b6000611fc86015836118cb565b9150611fd382611f92565b602082019050919050565b60006020820190508181036000830152611ff781611fbb565b9050919050565b7f4e487b7100000000000000000000000000000000000000000000000000000000600052601160045260246000fd5b60006120388261188c565b91506120438361188c565b92508282101561205657612055611ffe565b5b828203905092915050565b6000608082019050818103600083015261207b818761190f565b905061208a6020830186611896565b612097604083018561187d565b6120a46060830184611896565b95945050505050565b600060808201905081810360008301526120c7818761190f565b90506120d6602083018661187d565b81810360408301526120e8818561190f565b90506120f76060830184611896565b95945050505050565b7f4e487b7100000000000000000000000000000000000000000000000000000000600052603260045260246000fd5b60006040820190508181036000830152612149818561190f565b90506121586020830184611896565b9392505050565b7f546f6b656e20616d6f756e7420697320696e666572696f7220746f20302e0000600082015250565b6000612195601e836118cb565b91506121a08261215f565b602082019050919050565b600060208201905081810360008301526121c481612188565b9050919050565b60006121d68261188c565b91506121e18361188c565b9250817fffffffffffffffffffffffffffffffffffffffffffffffffffffffffffffffff048311821515161561221a57612219611ffe565b5b828202905092915050565b7f4e487b7100000000000000000000000000000000000000000000000000000000600052601260045260246000fd5b600061225f8261188c565b915061226a8361188c565b92508261227a57612279612225565b5b828204905092915050565b6000606082019050818103600083015261229f818661190f565b90506122ae6020830185611896565b6122bb6040830184611896565b949350505050565b60006122ce8261188c565b91506122d98361188c565b9250827fffffffffffffffffffffffffffffffffffffffffffffffffffffffffffffffff0382111561230e5761230d611ffe565b5b828201905092915050565b7f5472616e73616374696f6e20616d6f756e7420696e666572696f72206f72206560008201527f7175616c20746f20300000000000000000000000000000000000000000000000602082015250565b60006123756029836118cb565b915061238082612319565b604082019050919050565b600060208201905081810360008301526123a481612368565b9050919050565b7f4e6f7420656e6f756768206d6f6e657920746f207472616e736163742e000000600082015250565b60006123e1601d836118cb565b91506123ec826123ab565b602082019050919050565b60006020820190508181036000830152612410816123d4565b905091905056fea2646970667358221220c6162210ef834cf486f6e4880ebe93c69ff87cca5759027873b8279e6bc8c6e164736f6c63430008090033",
  "linkReferences": {},
  "deployedLinkReferences": {}
}