{
  "_format": "hh-sol-artifact-1",
  "contractName": "Bounties",
  "sourceName": "contracts/bounties.sol",
  "abi": [
    {
      "inputs": [],
      "stateMutability": "nonpayable",
      "type": "constructor"
    },
    {
      "anonymous": false,
      "inputs": [
        {
          "indexed": false,
          "internalType": "uint256",
          "name": "_bountyId",
          "type": "uint256"
        },
        {
          "indexed": false,
          "internalType": "uint256",
          "name": "_fulfillmentId",
          "type": "uint256"
        },
        {
          "indexed": false,
          "internalType": "uint256",
          "name": "_tokenAmount",
          "type": "uint256"
        }
      ],
      "name": "AnswerAccepted",
      "type": "event"
    },
    {
      "anonymous": false,
      "inputs": [
        {
          "indexed": false,
          "internalType": "uint256",
          "name": "_bountyId",
          "type": "uint256"
        },
        {
          "indexed": false,
          "internalType": "address payable",
          "name": "_sender",
          "type": "address"
        },
        {
          "indexed": false,
          "internalType": "string",
          "name": "_answerId",
          "type": "string"
        },
        {
          "indexed": false,
          "internalType": "uint256",
          "name": "numFulfillments",
          "type": "uint256"
        }
      ],
      "name": "BountyFulfilled",
      "type": "event"
    },
    {
      "anonymous": false,
      "inputs": [
        {
          "indexed": false,
          "internalType": "uint256",
          "name": "_bountyId",
          "type": "uint256"
        },
        {
          "indexed": false,
          "internalType": "address payable",
          "name": "_issuer",
          "type": "address"
        },
        {
          "indexed": false,
          "internalType": "string",
          "name": "_questionId",
          "type": "string"
        },
        {
          "indexed": false,
          "internalType": "uint256",
          "name": "_deadline",
          "type": "uint256"
        }
      ],
      "name": "BountyIssued",
      "type": "event"
    },
    {
      "anonymous": false,
      "inputs": [
        {
          "indexed": false,
          "internalType": "uint256",
          "name": "_bountyId",
          "type": "uint256"
        },
        {
          "indexed": false,
          "internalType": "uint256",
          "name": "_contributionId",
          "type": "uint256"
        },
        {
          "indexed": false,
          "internalType": "address payable",
          "name": "_contributor",
          "type": "address"
        },
        {
          "indexed": false,
          "internalType": "uint256",
          "name": "_amount",
          "type": "uint256"
        }
      ],
      "name": "ContributionAdded",
      "type": "event"
    },
    {
      "anonymous": false,
      "inputs": [
        {
          "indexed": false,
          "internalType": "uint256",
          "name": "_bountyId",
          "type": "uint256"
        },
        {
          "indexed": false,
          "internalType": "uint256",
          "name": "_contributionId",
          "type": "uint256"
        }
      ],
      "name": "ContributionRefunded",
      "type": "event"
    },
    {
      "inputs": [
        {
          "internalType": "address",
          "name": "_sender",
          "type": "address"
        },
        {
          "internalType": "uint256",
          "name": "_bountyId",
          "type": "uint256"
        },
        {
          "internalType": "uint256",
          "name": "_answerId",
          "type": "uint256"
        },
        {
          "internalType": "uint256",
          "name": "_tokenAmount",
          "type": "uint256"
        }
      ],
      "name": "acceptAnswer",
      "outputs": [],
      "stateMutability": "nonpayable",
      "type": "function"
    },
    {
      "inputs": [
        {
          "internalType": "address payable",
          "name": "_sender",
          "type": "address"
        },
        {
          "internalType": "uint256",
          "name": "_bountyId",
          "type": "uint256"
        },
        {
          "internalType": "string",
          "name": "_answerId",
          "type": "string"
        }
      ],
      "name": "answerBounty",
      "outputs": [],
      "stateMutability": "nonpayable",
      "type": "function"
    },
    {
      "inputs": [
        {
          "internalType": "uint256",
          "name": "",
          "type": "uint256"
        }
      ],
      "name": "bounties",
      "outputs": [
        {
          "internalType": "address payable",
          "name": "issuer",
          "type": "address"
        },
        {
          "internalType": "uint256",
          "name": "deadline",
          "type": "uint256"
        },
        {
          "internalType": "uint256",
          "name": "balance",
          "type": "uint256"
        },
        {
          "internalType": "bool",
          "name": "hasBeenAnswered",
          "type": "bool"
        },
        {
          "internalType": "string",
          "name": "questionId",
          "type": "string"
        }
      ],
      "stateMutability": "view",
      "type": "function"
    },
    {
      "inputs": [],
      "name": "callStarted",
      "outputs": [
        {
          "internalType": "bool",
          "name": "",
          "type": "bool"
        }
      ],
      "stateMutability": "view",
      "type": "function"
    },
    {
      "inputs": [
        {
          "internalType": "address payable",
          "name": "_sender",
          "type": "address"
        },
        {
          "internalType": "uint256",
          "name": "_bountyId",
          "type": "uint256"
        },
        {
          "internalType": "uint256",
          "name": "_amount",
          "type": "uint256"
        }
      ],
      "name": "contribute",
      "outputs": [],
      "stateMutability": "payable",
      "type": "function"
    },
    {
      "inputs": [
        {
          "internalType": "uint256",
          "name": "_bountyId",
          "type": "uint256"
        }
      ],
      "name": "getBounty",
      "outputs": [
        {
          "components": [
            {
              "internalType": "address payable",
              "name": "issuer",
              "type": "address"
            },
            {
              "internalType": "uint256",
              "name": "deadline",
              "type": "uint256"
            },
            {
              "internalType": "uint256",
              "name": "balance",
              "type": "uint256"
            },
            {
              "internalType": "bool",
              "name": "hasBeenAnswered",
              "type": "bool"
            },
            {
              "internalType": "string",
              "name": "questionId",
              "type": "string"
            },
            {
              "components": [
                {
                  "internalType": "string",
                  "name": "answerId",
                  "type": "string"
                },
                {
                  "internalType": "address payable",
                  "name": "submitter",
                  "type": "address"
                },
                {
                  "internalType": "uint256",
                  "name": "timestamp",
                  "type": "uint256"
                }
              ],
              "internalType": "struct Bounties.Fulfillment[]",
              "name": "fulfillments",
              "type": "tuple[]"
            },
            {
              "components": [
                {
                  "internalType": "address payable",
                  "name": "contributor",
                  "type": "address"
                },
                {
                  "internalType": "uint256",
                  "name": "amount",
                  "type": "uint256"
                },
                {
                  "internalType": "bool",
                  "name": "refunded",
                  "type": "bool"
                }
              ],
              "internalType": "struct Bounties.Contribution[]",
              "name": "contributions",
              "type": "tuple[]"
            }
          ],
          "internalType": "struct Bounties.Bounty",
          "name": "",
          "type": "tuple"
        }
      ],
      "stateMutability": "view",
      "type": "function"
    },
    {
      "inputs": [],
      "name": "getTotalSupply",
      "outputs": [
        {
          "internalType": "uint256",
          "name": "",
          "type": "uint256"
        }
      ],
      "stateMutability": "view",
      "type": "function"
    },
    {
      "inputs": [
        {
          "internalType": "address payable",
          "name": "_sender",
          "type": "address"
        },
        {
          "internalType": "string",
          "name": "_questionId",
          "type": "string"
        },
        {
          "internalType": "uint256",
          "name": "_depositAmount",
          "type": "uint256"
        }
      ],
      "name": "issueBountyAndContribute",
      "outputs": [],
      "stateMutability": "payable",
      "type": "function"
    },
    {
      "inputs": [],
      "name": "numBounties",
      "outputs": [
        {
          "internalType": "uint256",
          "name": "",
          "type": "uint256"
        }
      ],
      "stateMutability": "view",
      "type": "function"
    },
    {
      "inputs": [],
      "name": "owner",
      "outputs": [
        {
          "internalType": "address",
          "name": "",
          "type": "address"
        }
      ],
      "stateMutability": "view",
      "type": "function"
    },
    {
      "inputs": [
        {
          "internalType": "address",
          "name": "_sender",
          "type": "address"
        },
        {
          "internalType": "uint256",
          "name": "_bountyId",
          "type": "uint256"
        },
        {
          "internalType": "uint256",
          "name": "_contributionId",
          "type": "uint256"
        }
      ],
      "name": "refundContribution",
      "outputs": [],
      "stateMutability": "nonpayable",
      "type": "function"
    },
    {
      "inputs": [],
      "name": "withdraw",
      "outputs": [],
      "stateMutability": "nonpayable",
      "type": "function"
    }
  ],
  "bytecode": "0x60806040523480156200001157600080fd5b5033600260006101000a81548173ffffffffffffffffffffffffffffffffffffffff021916908373ffffffffffffffffffffffffffffffffffffffff160217905550620000c16040518060400160405280600981526020017f4f776e65723a2025730000000000000000000000000000000000000000000000815250600260009054906101000a900473ffffffffffffffffffffffffffffffffffffffff16620000c760201b620012e31760201c565b620002b3565b620001698282604051602401620000e09291906200027f565b6040516020818303038152906040527f319af333000000000000000000000000000000000000000000000000000000007bffffffffffffffffffffffffffffffffffffffffffffffffffffffff19166020820180517bffffffffffffffffffffffffffffffffffffffffffffffffffffffff83818316178352505050506200016d60201b60201c565b5050565b60008151905060006a636f6e736f6c652e6c6f679050602083016000808483855afa5050505050565b600081519050919050565b600082825260208201905092915050565b60005b83811015620001d2578082015181840152602081019050620001b5565b83811115620001e2576000848401525b50505050565b6000601f19601f8301169050919050565b6000620002068262000196565b620002128185620001a1565b935062000224818560208601620001b2565b6200022f81620001e8565b840191505092915050565b600073ffffffffffffffffffffffffffffffffffffffff82169050919050565b600062000267826200023a565b9050919050565b62000279816200025a565b82525050565b600060408201905081810360008301526200029b8185620001f9565b9050620002ac60208301846200026e565b9392505050565b61286880620002c36000396000f3fe6080604052600436106100a75760003560e01c806393c1ccc91161006457806393c1ccc914610196578063a08f793c146101bf578063c4e41b22146101db578063dc2f874414610206578063ee8c4bbf14610247578063f93298a114610284576100a7565b806302e4ee5a146100ac5780633ccfd60b146100d5578063720dc00c146100ec5780637eede95f1461011757806388db0f52146101405780638da5cb5b1461016b575b600080fd5b3480156100b857600080fd5b506100d360048036038101906100ce919061194a565b6102a0565b005b3480156100e157600080fd5b506100ea610538565b005b3480156100f857600080fd5b50610101610603565b60405161010e91906119cc565b60405180910390f35b34801561012357600080fd5b5061013e60048036038101906101399190611b6b565b610616565b005b34801561014c57600080fd5b50610155610810565b6040516101629190611be9565b60405180910390f35b34801561017757600080fd5b50610180610816565b60405161018d9190611c13565b60405180910390f35b3480156101a257600080fd5b506101bd60048036038101906101b89190611c2e565b61083c565b005b6101d960048036038101906101d49190611c81565b610b3e565b005b3480156101e757600080fd5b506101f0610e28565b6040516101fd9190611be9565b60405180910390f35b34801561021257600080fd5b5061022d60048036038101906102289190611cd4565b610e30565b60405161023e959493929190611d98565b60405180910390f35b34801561025357600080fd5b5061026e60048036038101906102699190611cd4565b610f1b565b60405161027b9190612116565b60405180910390f35b61029e60048036038101906102999190612138565b61128a565b005b838073ffffffffffffffffffffffffffffffffffffffff163373ffffffffffffffffffffffffffffffffffffffff16146102d957600080fd5b83600054811061031e576040517f08c379a0000000000000000000000000000000000000000000000000000000008152600401610315906121f3565b60405180910390fd5b84846001600083815260200190815260200160002060050180549050811061034557600080fd5b600260009054906101000a900473ffffffffffffffffffffffffffffffffffffffff1673ffffffffffffffffffffffffffffffffffffffff163373ffffffffffffffffffffffffffffffffffffffff161461039f57600080fd5b600260149054906101000a900460ff16156103b957600080fd5b6001600260146101000a81548160ff02191690831515021790555060006001600089815260200190815260200160002060050187815481106103fe576103fd612213565b5b9060005260206000209060030201905060008611610451576040517f08c379a00000000000000000000000000000000000000000000000000000000081526004016104489061228e565b60405180910390fd5b60006103e887604561046391906122dd565b61046d9190612366565b905061049c89600260009054906101000a900473ffffffffffffffffffffffffffffffffffffffff168361137f565b6104d6898360010160009054906101000a900473ffffffffffffffffffffffffffffffffffffffff16838a6104d19190612397565b61137f565b7fd83572deb53c985d6cb3610557f19c153a1d1d60c26613f1e6c2ae82b98a052d898989604051610509939291906123cb565b60405180910390a150506000600260146101000a81548160ff0219169083151502179055505050505050505050565b600260009054906101000a900473ffffffffffffffffffffffffffffffffffffffff1673ffffffffffffffffffffffffffffffffffffffff163373ffffffffffffffffffffffffffffffffffffffff161461059257600080fd5b6000479050600260009054906101000a900473ffffffffffffffffffffffffffffffffffffffff1673ffffffffffffffffffffffffffffffffffffffff166108fc829081150290604051600060405180830381858888f193505050501580156105ff573d6000803e3d6000fd5b5050565b600260149054906101000a900460ff1681565b828073ffffffffffffffffffffffffffffffffffffffff163373ffffffffffffffffffffffffffffffffffffffff161461064f57600080fd5b826000548110610694576040517f08c379a000000000000000000000000000000000000000000000000000000000815260040161068b906121f3565b60405180910390fd5b600180600086815260200190815260200160002060030160006101000a81548160ff0219169083151502179055506001600085815260200190815260200160002060050160405180606001604052808581526020018773ffffffffffffffffffffffffffffffffffffffff168152602001428152509080600181540180825580915050600190039060005260206000209060030201600090919091909150600082015181600001908051906020019061074e9291906117aa565b5060208201518160010160006101000a81548173ffffffffffffffffffffffffffffffffffffffff021916908373ffffffffffffffffffffffffffffffffffffffff16021790555060408201518160020155505060006001806000878152602001908152602001600020600501805490506107c99190612397565b90507fb3678e54af7fd979c3e566d9167fc0a8aaf116e4e79aa5f1dbb0564d8b4085ba858786846040516108009493929190612402565b60405180910390a1505050505050565b60005481565b600260009054906101000a900473ffffffffffffffffffffffffffffffffffffffff1681565b828073ffffffffffffffffffffffffffffffffffffffff163373ffffffffffffffffffffffffffffffffffffffff161461087557600080fd5b8260005481106108ba576040517f08c379a00000000000000000000000000000000000000000000000000000000081526004016108b1906121f3565b60405180910390fd5b8383600160008381526020019081526020016000206006018054905081106108e157600080fd5b86868660016000838152602001908152602001600020600601818154811061090c5761090b612213565b5b906000526020600020906003020160000160009054906101000a900473ffffffffffffffffffffffffffffffffffffffff1673ffffffffffffffffffffffffffffffffffffffff168373ffffffffffffffffffffffffffffffffffffffff161461097557600080fd5b886001600082815260200190815260200160002060030160009054906101000a900460ff16156109a457600080fd5b89896001600083815260200190815260200160002060060181815481106109ce576109cd612213565b5b906000526020600020906003020160020160009054906101000a900460ff16156109f757600080fd5b8b60016000828152602001908152602001600020600101544211610a1a57600080fd5b600260149054906101000a900460ff1615610a3457600080fd5b6001600260146101000a81548160ff0219169083151502179055506000600160008f81526020019081526020016000206006018d81548110610a7957610a78612213565b5b9060005260206000209060030201905060018160020160006101000a81548160ff021916908315150217905550610ad98e8260000160009054906101000a900473ffffffffffffffffffffffffffffffffffffffff16836001015461137f565b7ffb1da5cbf027ad18b7c1f786bf81e9920cc0db09d7e299a8e4f3dbb64ce32f018e8e604051610b0a92919061244e565b60405180910390a1506000600260146101000a81548160ff0219169083151502179055505050505050505050505050505050565b828073ffffffffffffffffffffffffffffffffffffffff163373ffffffffffffffffffffffffffffffffffffffff1614610b7757600080fd5b826000548110610bbc576040517f08c379a0000000000000000000000000000000000000000000000000000000008152600401610bb3906121f3565b60405180910390fd5b600260149054906101000a900460ff1615610bd657600080fd5b6001600260146101000a81548160ff02191690831515021790555060008311610c34576040517f08c379a0000000000000000000000000000000000000000000000000000000008152600401610c2b906124c3565b60405180910390fd5b823414610c76576040517f08c379a0000000000000000000000000000000000000000000000000000000008152600401610c6d9061252f565b60405180910390fd5b6001600085815260200190815260200160002060060160405180606001604052808773ffffffffffffffffffffffffffffffffffffffff16815260200185815260200160001515815250908060018154018082558091505060019003906000526020600020906003020160009091909190915060008201518160000160006101000a81548173ffffffffffffffffffffffffffffffffffffffff021916908373ffffffffffffffffffffffffffffffffffffffff1602179055506020820151816001015560408201518160020160006101000a81548160ff0219169083151502179055505050610d858360016000878152602001908152602001600020600201546114aa90919063ffffffff16565b60016000868152602001908152602001600020600201819055506000600180600087815260200190815260200160002060060180549050610dc69190612397565b90507f7431e5e30247dcb2379eab9b0e60e49038c5ddb5cac27f27a17e950c0220a69385828887604051610dfd949392919061254f565b60405180910390a1506000600260146101000a81548160ff0219169083151502179055505050505050565b600047905090565b60016020528060005260406000206000915090508060000160009054906101000a900473ffffffffffffffffffffffffffffffffffffffff16908060010154908060020154908060030160009054906101000a900460ff1690806004018054610e98906125c3565b80601f0160208091040260200160405190810160405280929190818152602001828054610ec4906125c3565b8015610f115780601f10610ee657610100808354040283529160200191610f11565b820191906000526020600020905b815481529060010190602001808311610ef457829003601f168201915b5050505050905085565b610f23611830565b600160008381526020019081526020016000206040518060e00160405290816000820160009054906101000a900473ffffffffffffffffffffffffffffffffffffffff1673ffffffffffffffffffffffffffffffffffffffff1673ffffffffffffffffffffffffffffffffffffffff16815260200160018201548152602001600282015481526020016003820160009054906101000a900460ff16151515158152602001600482018054610fd6906125c3565b80601f0160208091040260200160405190810160405280929190818152602001828054611002906125c3565b801561104f5780601f106110245761010080835404028352916020019161104f565b820191906000526020600020905b81548152906001019060200180831161103257829003601f168201915b5050505050815260200160058201805480602002602001604051908101604052809291908181526020016000905b828210156111a157838290600052602060002090600302016040518060600160405290816000820180546110b0906125c3565b80601f01602080910402602001604051908101604052809291908181526020018280546110dc906125c3565b80156111295780601f106110fe57610100808354040283529160200191611129565b820191906000526020600020905b81548152906001019060200180831161110c57829003601f168201915b505050505081526020016001820160009054906101000a900473ffffffffffffffffffffffffffffffffffffffff1673ffffffffffffffffffffffffffffffffffffffff1673ffffffffffffffffffffffffffffffffffffffff1681526020016002820154815250508152602001906001019061107d565b50505050815260200160068201805480602002602001604051908101604052809291908181526020016000905b8282101561127b57838290600052602060002090600302016040518060600160405290816000820160009054906101000a900473ffffffffffffffffffffffffffffffffffffffff1673ffffffffffffffffffffffffffffffffffffffff1673ffffffffffffffffffffffffffffffffffffffff168152602001600182015481526020016002820160009054906101000a900460ff161515151581525050815260200190600101906111ce565b50505050815250509050919050565b828073ffffffffffffffffffffffffffffffffffffffff163373ffffffffffffffffffffffffffffffffffffffff16146112c357600080fd5b60006112cf85856114c0565b90506112dc858285610b3e565b5050505050565b61137b82826040516024016112f99291906125f5565b6040516020818303038152906040527f319af333000000000000000000000000000000000000000000000000000000007bffffffffffffffffffffffffffffffffffffffffffffffffffffffff19166020820180517bffffffffffffffffffffffffffffffffffffffffffffffffffffffff838183161783525050505061162d565b5050565b600081116113c2576040517f08c379a00000000000000000000000000000000000000000000000000000000081526004016113b990612697565b60405180910390fd5b806001600085815260200190815260200160002060020154101561141b576040517f08c379a000000000000000000000000000000000000000000000000000000000815260040161141290612703565b60405180910390fd5b61144481600160008681526020019081526020016000206002015461165690919063ffffffff16565b60016000858152602001908152602001600020600201819055508173ffffffffffffffffffffffffffffffffffffffff166108fc829081150290604051600060405180830381858888f193505050501580156114a4573d6000803e3d6000fd5b50505050565b600081836114b89190612723565b905092915050565b60008060005490506000600160008381526020019081526020016000209050848160000160006101000a81548173ffffffffffffffffffffffffffffffffffffffff021916908373ffffffffffffffffffffffffffffffffffffffff1602179055506203f480426115319190612723565b8160010181905550838160040190805190602001906115519291906117aa565b5061157a6040518060600160405280603681526020016127fd603691398686846001015461166c565b61159060016000546114aa90919063ffffffff16565b6000819055506115d76040518060400160405280601281526020017f4e756d426f756e746965732069733a202573000000000000000000000000000081525060005461170e565b7ffb38679481cd7a6e17c1d0c79e0b799c8db15005ffb346afda0d925354bf90808286866203f4804261160a9190612723565b60405161161a9493929190612402565b60405180910390a1819250505092915050565b60008151905060006a636f6e736f6c652e6c6f679050602083016000808483855afa5050505050565b600081836116649190612397565b905092915050565b611708848484846040516024016116869493929190612779565b6040516020818303038152906040527f91d1112e000000000000000000000000000000000000000000000000000000007bffffffffffffffffffffffffffffffffffffffffffffffffffffffff19166020820180517bffffffffffffffffffffffffffffffffffffffffffffffffffffffff838183161783525050505061162d565b50505050565b6117a682826040516024016117249291906127cc565b6040516020818303038152906040527fb60e72cc000000000000000000000000000000000000000000000000000000007bffffffffffffffffffffffffffffffffffffffffffffffffffffffff19166020820180517bffffffffffffffffffffffffffffffffffffffffffffffffffffffff838183161783525050505061162d565b5050565b8280546117b6906125c3565b90600052602060002090601f0160209004810192826117d8576000855561181f565b82601f106117f157805160ff191683800117855561181f565b8280016001018555821561181f579182015b8281111561181e578251825591602001919060010190611803565b5b50905061182c9190611885565b5090565b6040518060e00160405280600073ffffffffffffffffffffffffffffffffffffffff16815260200160008152602001600081526020016000151581526020016060815260200160608152602001606081525090565b5b8082111561189e576000816000905550600101611886565b5090565b6000604051905090565b600080fd5b600080fd5b600073ffffffffffffffffffffffffffffffffffffffff82169050919050565b60006118e1826118b6565b9050919050565b6118f1816118d6565b81146118fc57600080fd5b50565b60008135905061190e816118e8565b92915050565b6000819050919050565b61192781611914565b811461193257600080fd5b50565b6000813590506119448161191e565b92915050565b60008060008060808587031215611964576119636118ac565b5b6000611972878288016118ff565b945050602061198387828801611935565b935050604061199487828801611935565b92505060606119a587828801611935565b91505092959194509250565b60008115159050919050565b6119c6816119b1565b82525050565b60006020820190506119e160008301846119bd565b92915050565b60006119f2826118b6565b9050919050565b611a02816119e7565b8114611a0d57600080fd5b50565b600081359050611a1f816119f9565b92915050565b600080fd5b600080fd5b6000601f19601f8301169050919050565b7f4e487b7100000000000000000000000000000000000000000000000000000000600052604160045260246000fd5b611a7882611a2f565b810181811067ffffffffffffffff82111715611a9757611a96611a40565b5b80604052505050565b6000611aaa6118a2565b9050611ab68282611a6f565b919050565b600067ffffffffffffffff821115611ad657611ad5611a40565b5b611adf82611a2f565b9050602081019050919050565b82818337600083830152505050565b6000611b0e611b0984611abb565b611aa0565b905082815260208101848484011115611b2a57611b29611a2a565b5b611b35848285611aec565b509392505050565b600082601f830112611b5257611b51611a25565b5b8135611b62848260208601611afb565b91505092915050565b600080600060608486031215611b8457611b836118ac565b5b6000611b9286828701611a10565b9350506020611ba386828701611935565b925050604084013567ffffffffffffffff811115611bc457611bc36118b1565b5b611bd086828701611b3d565b9150509250925092565b611be381611914565b82525050565b6000602082019050611bfe6000830184611bda565b92915050565b611c0d816118d6565b82525050565b6000602082019050611c286000830184611c04565b92915050565b600080600060608486031215611c4757611c466118ac565b5b6000611c55868287016118ff565b9350506020611c6686828701611935565b9250506040611c7786828701611935565b9150509250925092565b600080600060608486031215611c9a57611c996118ac565b5b6000611ca886828701611a10565b9350506020611cb986828701611935565b9250506040611cca86828701611935565b9150509250925092565b600060208284031215611cea57611ce96118ac565b5b6000611cf884828501611935565b91505092915050565b611d0a816119e7565b82525050565b600081519050919050565b600082825260208201905092915050565b60005b83811015611d4a578082015181840152602081019050611d2f565b83811115611d59576000848401525b50505050565b6000611d6a82611d10565b611d748185611d1b565b9350611d84818560208601611d2c565b611d8d81611a2f565b840191505092915050565b600060a082019050611dad6000830188611d01565b611dba6020830187611bda565b611dc76040830186611bda565b611dd460608301856119bd565b8181036080830152611de68184611d5f565b90509695505050505050565b611dfb816119e7565b82525050565b611e0a81611914565b82525050565b611e19816119b1565b82525050565b600082825260208201905092915050565b6000611e3b82611d10565b611e458185611e1f565b9350611e55818560208601611d2c565b611e5e81611a2f565b840191505092915050565b600081519050919050565b600082825260208201905092915050565b6000819050602082019050919050565b60006060830160008301518482036000860152611eb28282611e30565b9150506020830151611ec76020860182611df2565b506040830151611eda6040860182611e01565b508091505092915050565b6000611ef18383611e95565b905092915050565b6000602082019050919050565b6000611f1182611e69565b611f1b8185611e74565b935083602082028501611f2d85611e85565b8060005b85811015611f695784840389528151611f4a8582611ee5565b9450611f5583611ef9565b925060208a01995050600181019050611f31565b50829750879550505050505092915050565b600081519050919050565b600082825260208201905092915050565b6000819050602082019050919050565b606082016000820151611fbd6000850182611df2565b506020820151611fd06020850182611e01565b506040820151611fe36040850182611e10565b50505050565b6000611ff58383611fa7565b60608301905092915050565b6000602082019050919050565b600061201982611f7b565b6120238185611f86565b935061202e83611f97565b8060005b8381101561205f5781516120468882611fe9565b975061205183612001565b925050600181019050612032565b5085935050505092915050565b600060e0830160008301516120846000860182611df2565b5060208301516120976020860182611e01565b5060408301516120aa6040860182611e01565b5060608301516120bd6060860182611e10565b50608083015184820360808601526120d58282611e30565b91505060a083015184820360a08601526120ef8282611f06565b91505060c083015184820360c0860152612109828261200e565b9150508091505092915050565b60006020820190508181036000830152612130818461206c565b905092915050565b600080600060608486031215612151576121506118ac565b5b600061215f86828701611a10565b935050602084013567ffffffffffffffff8111156121805761217f6118b1565b5b61218c86828701611b3d565b925050604061219d86828701611935565b9150509250925092565b7f426f756e74794172726179496e646578206f7574206f6620626f756e64730000600082015250565b60006121dd601e83611d1b565b91506121e8826121a7565b602082019050919050565b6000602082019050818103600083015261220c816121d0565b9050919050565b7f4e487b7100000000000000000000000000000000000000000000000000000000600052603260045260246000fd5b7f546f6b656e20616d6f756e7420697320696e666572696f7220746f20302e0000600082015250565b6000612278601e83611d1b565b915061228382612242565b602082019050919050565b600060208201905081810360008301526122a78161226b565b9050919050565b7f4e487b7100000000000000000000000000000000000000000000000000000000600052601160045260246000fd5b60006122e882611914565b91506122f383611914565b9250817fffffffffffffffffffffffffffffffffffffffffffffffffffffffffffffffff048311821515161561232c5761232b6122ae565b5b828202905092915050565b7f4e487b7100000000000000000000000000000000000000000000000000000000600052601260045260246000fd5b600061237182611914565b915061237c83611914565b92508261238c5761238b612337565b5b828204905092915050565b60006123a282611914565b91506123ad83611914565b9250828210156123c0576123bf6122ae565b5b828203905092915050565b60006060820190506123e06000830186611bda565b6123ed6020830185611bda565b6123fa6040830184611bda565b949350505050565b60006080820190506124176000830187611bda565b6124246020830186611d01565b81810360408301526124368185611d5f565b90506124456060830184611bda565b95945050505050565b60006040820190506124636000830185611bda565b6124706020830184611bda565b9392505050565b7f416d6f756e7420696e666572696f7220746f20302e0000000000000000000000600082015250565b60006124ad601583611d1b565b91506124b882612477565b602082019050919050565b600060208201905081810360008301526124dc816124a0565b9050919050565b7f416d6f756e74206e6f7420657175616c20746f206d73672e76616c75652e0000600082015250565b6000612519601e83611d1b565b9150612524826124e3565b602082019050919050565b600060208201905081810360008301526125488161250c565b9050919050565b60006080820190506125646000830187611bda565b6125716020830186611bda565b61257e6040830185611d01565b61258b6060830184611bda565b95945050505050565b7f4e487b7100000000000000000000000000000000000000000000000000000000600052602260045260246000fd5b600060028204905060018216806125db57607f821691505b602082108114156125ef576125ee612594565b5b50919050565b6000604082019050818103600083015261260f8185611d5f565b905061261e6020830184611c04565b9392505050565b7f5472616e73616374696f6e20616d6f756e7420696e666572696f72206f72206560008201527f7175616c20746f20300000000000000000000000000000000000000000000000602082015250565b6000612681602983611d1b565b915061268c82612625565b604082019050919050565b600060208201905081810360008301526126b081612674565b9050919050565b7f4e6f7420656e6f756768206d6f6e657920746f207472616e736163742e000000600082015250565b60006126ed601d83611d1b565b91506126f8826126b7565b602082019050919050565b6000602082019050818103600083015261271c816126e0565b9050919050565b600061272e82611914565b915061273983611914565b9250827fffffffffffffffffffffffffffffffffffffffffffffffffffffffffffffffff0382111561276e5761276d6122ae565b5b828201905092915050565b600060808201905081810360008301526127938187611d5f565b90506127a26020830186611c04565b81810360408301526127b48185611d5f565b90506127c36060830184611bda565b95945050505050565b600060408201905081810360008301526127e68185611d5f565b90506127f56020830184611bda565b939250505056fe6973737565426f756e74793a2053656e646572203d2025732c205175657374696f6e49643d2025732c20446561646c696e653d202573a2646970667358221220004185e309d63e758ca11832cc67e116c052d08571452ff9b4988112652396cb64736f6c63430008090033",
  "linkReferences": {},
  "deployedLinkReferences": {}
}