{
  "_format": "hh-sol-artifact-1",
  "contractName": "Bounties",
  "sourceName": "contracts/bounties.sol",
  "abi": [
    {
      "inputs": [],
      "stateMutability": "nonpayable",
      "type": "constructor"
    },
    {
      "anonymous": false,
      "inputs": [
        {
          "indexed": false,
          "internalType": "uint256",
          "name": "_bountyId",
          "type": "uint256"
        },
        {
          "indexed": false,
          "internalType": "uint256",
          "name": "_fulfillmentId",
          "type": "uint256"
        },
        {
          "indexed": false,
          "internalType": "uint256",
          "name": "_tokenAmount",
          "type": "uint256"
        }
      ],
      "name": "AnswerAccepted",
      "type": "event"
    },
    {
      "anonymous": false,
      "inputs": [
        {
          "indexed": false,
          "internalType": "uint256",
          "name": "_bountyId",
          "type": "uint256"
        },
        {
          "indexed": false,
          "internalType": "address",
          "name": "_sender",
          "type": "address"
        },
        {
          "indexed": false,
          "internalType": "string",
          "name": "_answerHash",
          "type": "string"
        },
        {
          "indexed": false,
          "internalType": "uint256",
          "name": "numFulfillments",
          "type": "uint256"
        }
      ],
      "name": "BountyFulfilled",
      "type": "event"
    },
    {
      "anonymous": false,
      "inputs": [
        {
          "indexed": false,
          "internalType": "uint256",
          "name": "bountyId",
          "type": "uint256"
        },
        {
          "indexed": false,
          "internalType": "address",
          "name": "_issuer",
          "type": "address"
        },
        {
          "indexed": false,
          "internalType": "string",
          "name": "_questionHash",
          "type": "string"
        },
        {
          "indexed": false,
          "internalType": "uint256",
          "name": "_deadline",
          "type": "uint256"
        }
      ],
      "name": "BountyIssued",
      "type": "event"
    },
    {
      "anonymous": false,
      "inputs": [
        {
          "indexed": false,
          "internalType": "uint256",
          "name": "_bountyId",
          "type": "uint256"
        },
        {
          "indexed": false,
          "internalType": "uint256",
          "name": "_contributionId",
          "type": "uint256"
        },
        {
          "indexed": false,
          "internalType": "address",
          "name": "_contributor",
          "type": "address"
        },
        {
          "indexed": false,
          "internalType": "uint256",
          "name": "_amount",
          "type": "uint256"
        }
      ],
      "name": "ContributionAdded",
      "type": "event"
    },
    {
      "anonymous": false,
      "inputs": [
        {
          "indexed": false,
          "internalType": "uint256",
          "name": "_bountyId",
          "type": "uint256"
        },
        {
          "indexed": false,
          "internalType": "uint256",
          "name": "_contributionId",
          "type": "uint256"
        }
      ],
      "name": "ContributionRefunded",
      "type": "event"
    },
    {
      "inputs": [
        {
          "internalType": "uint256",
          "name": "_bountyId",
          "type": "uint256"
        },
        {
          "internalType": "uint256",
          "name": "_answerId",
          "type": "uint256"
        },
        {
          "internalType": "uint256",
          "name": "_tokenAmount",
          "type": "uint256"
        }
      ],
      "name": "acceptAnswer",
      "outputs": [],
      "stateMutability": "nonpayable",
      "type": "function"
    },
    {
      "inputs": [
        {
          "internalType": "uint256",
          "name": "_bountyId",
          "type": "uint256"
        },
        {
          "internalType": "string",
          "name": "_answerHash",
          "type": "string"
        }
      ],
      "name": "answerBounty",
      "outputs": [],
      "stateMutability": "nonpayable",
      "type": "function"
    },
    {
      "inputs": [
        {
          "internalType": "uint256",
          "name": "",
          "type": "uint256"
        }
      ],
      "name": "bounties",
      "outputs": [
        {
          "internalType": "address payable",
          "name": "issuer",
          "type": "address"
        },
        {
          "internalType": "uint256",
          "name": "deadline",
          "type": "uint256"
        },
        {
          "internalType": "uint256",
          "name": "balance",
          "type": "uint256"
        },
        {
          "internalType": "bool",
          "name": "hasBeenAnswered",
          "type": "bool"
        },
        {
          "internalType": "string",
          "name": "questionHash",
          "type": "string"
        }
      ],
      "stateMutability": "view",
      "type": "function"
    },
    {
      "inputs": [
        {
          "internalType": "uint256",
          "name": "_bountyId",
          "type": "uint256"
        }
      ],
      "name": "contribute",
      "outputs": [],
      "stateMutability": "payable",
      "type": "function"
    },
    {
      "inputs": [
        {
          "internalType": "uint256",
          "name": "_bountyId",
          "type": "uint256"
        }
      ],
      "name": "getBounty",
      "outputs": [
        {
          "components": [
            {
              "internalType": "address payable",
              "name": "issuer",
              "type": "address"
            },
            {
              "internalType": "uint256",
              "name": "deadline",
              "type": "uint256"
            },
            {
              "internalType": "uint256",
              "name": "balance",
              "type": "uint256"
            },
            {
              "internalType": "bool",
              "name": "hasBeenAnswered",
              "type": "bool"
            },
            {
              "internalType": "string",
              "name": "questionHash",
              "type": "string"
            },
            {
              "components": [
                {
                  "internalType": "string",
                  "name": "answerId",
                  "type": "string"
                },
                {
                  "internalType": "address payable",
                  "name": "submitter",
                  "type": "address"
                },
                {
                  "internalType": "uint256",
                  "name": "timestamp",
                  "type": "uint256"
                }
              ],
              "internalType": "struct Bounties.Fulfillment[]",
              "name": "fulfillments",
              "type": "tuple[]"
            },
            {
              "components": [
                {
                  "internalType": "address payable",
                  "name": "contributor",
                  "type": "address"
                },
                {
                  "internalType": "uint256",
                  "name": "amount",
                  "type": "uint256"
                },
                {
                  "internalType": "bool",
                  "name": "refunded",
                  "type": "bool"
                }
              ],
              "internalType": "struct Bounties.Contribution[]",
              "name": "contributions",
              "type": "tuple[]"
            }
          ],
          "internalType": "struct Bounties.Bounty",
          "name": "",
          "type": "tuple"
        }
      ],
      "stateMutability": "view",
      "type": "function"
    },
    {
      "inputs": [],
      "name": "getTotalSupply",
      "outputs": [
        {
          "internalType": "uint256",
          "name": "",
          "type": "uint256"
        }
      ],
      "stateMutability": "view",
      "type": "function"
    },
    {
      "inputs": [
        {
          "internalType": "string",
          "name": "_questionHash",
          "type": "string"
        }
      ],
      "name": "issueBountyAndContribute",
      "outputs": [
        {
          "internalType": "uint256",
          "name": "",
          "type": "uint256"
        }
      ],
      "stateMutability": "payable",
      "type": "function"
    },
    {
      "inputs": [],
      "name": "numBounties",
      "outputs": [
        {
          "internalType": "uint256",
          "name": "",
          "type": "uint256"
        }
      ],
      "stateMutability": "view",
      "type": "function"
    },
    {
      "inputs": [],
      "name": "owner",
      "outputs": [
        {
          "internalType": "address",
          "name": "",
          "type": "address"
        }
      ],
      "stateMutability": "view",
      "type": "function"
    },
    {
      "inputs": [
        {
          "internalType": "uint256",
          "name": "_bountyId",
          "type": "uint256"
        },
        {
          "internalType": "uint256",
          "name": "_contributionId",
          "type": "uint256"
        }
      ],
      "name": "refundContribution",
      "outputs": [],
      "stateMutability": "nonpayable",
      "type": "function"
    },
    {
      "inputs": [
        {
          "internalType": "address",
          "name": "_validator",
          "type": "address"
        }
      ],
      "name": "setValidator",
      "outputs": [],
      "stateMutability": "nonpayable",
      "type": "function"
    },
    {
      "inputs": [],
      "name": "validator",
      "outputs": [
        {
          "internalType": "address",
          "name": "",
          "type": "address"
        }
      ],
      "stateMutability": "view",
      "type": "function"
    },
    {
      "inputs": [],
      "name": "withdraw",
      "outputs": [],
      "stateMutability": "nonpayable",
      "type": "function"
    }
  ],
  "bytecode": "0x608060405234801561001057600080fd5b50600160008190555033600360006101000a81548173ffffffffffffffffffffffffffffffffffffffff021916908373ffffffffffffffffffffffffffffffffffffffff16021790555033600460006101000a81548173ffffffffffffffffffffffffffffffffffffffff021916908373ffffffffffffffffffffffffffffffffffffffff160217905550612b31806100aa6000396000f3fe6080604052600436106100c25760003560e01c80638da5cb5b1161007f578063c4e41b2211610059578063c4e41b2214610226578063cba8a2a714610251578063dc2f87441461027a578063ee8c4bbf146102bb576100c2565b80638da5cb5b146101b6578063ae67dbe5146101e1578063c1cbbca71461020a576100c2565b80631327d3d8146100c75780632c886913146100f05780633a5381b5146101205780633ccfd60b1461014b57806373e282a51461016257806388db0f521461018b575b600080fd5b3480156100d357600080fd5b506100ee60048036038101906100e991906117e8565b6102f8565b005b61010a6004803603810190610105919061195b565b6103cc565b60405161011791906119bd565b60405180910390f35b34801561012c57600080fd5b506101356103ec565b60405161014291906119e7565b60405180910390f35b34801561015757600080fd5b50610160610412565b005b34801561016e57600080fd5b5061018960048036038101906101849190611a2e565b610579565b005b34801561019757600080fd5b506101a06108fc565b6040516101ad91906119bd565b60405180910390f35b3480156101c257600080fd5b506101cb610902565b6040516101d891906119e7565b60405180910390f35b3480156101ed57600080fd5b5061020860048036038101906102039190611a6e565b610928565b005b610224600480360381019061021f9190611ac1565b610ba0565b005b34801561023257600080fd5b5061023b610da8565b60405161024891906119bd565b60405180910390f35b34801561025d57600080fd5b5061027860048036038101906102739190611aee565b610db0565b005b34801561028657600080fd5b506102a1600480360381019061029c9190611ac1565b610f71565b6040516102b2959493929190611c0e565b60405180910390f35b3480156102c757600080fd5b506102e260048036038101906102dd9190611ac1565b61105c565b6040516102ef9190611f8c565b60405180910390f35b600460009054906101000a900473ffffffffffffffffffffffffffffffffffffffff1673ffffffffffffffffffffffffffffffffffffffff163373ffffffffffffffffffffffffffffffffffffffff1614610388576040517f08c379a000000000000000000000000000000000000000000000000000000000815260040161037f90611ffa565b60405180910390fd5b80600360006101000a81548173ffffffffffffffffffffffffffffffffffffffff021916908373ffffffffffffffffffffffffffffffffffffffff16021790555050565b6000806103d8836113cb565b90506103e381610ba0565b80915050919050565b600360009054906101000a900473ffffffffffffffffffffffffffffffffffffffff1681565b600460009054906101000a900473ffffffffffffffffffffffffffffffffffffffff1673ffffffffffffffffffffffffffffffffffffffff163373ffffffffffffffffffffffffffffffffffffffff16146104a2576040517f08c379a000000000000000000000000000000000000000000000000000000000815260040161049990611ffa565b60405180910390fd5b60004790506000600460009054906101000a900473ffffffffffffffffffffffffffffffffffffffff1673ffffffffffffffffffffffffffffffffffffffff16826040516104ef9061204b565b60006040518083038185875af1925050503d806000811461052c576040519150601f19603f3d011682016040523d82523d6000602084013e610531565b606091505b5050905080610575576040517f08c379a000000000000000000000000000000000000000000000000000000000815260040161056c906120ac565b60405180910390fd5b5050565b8160015481106105be576040517f08c379a00000000000000000000000000000000000000000000000000000000081526004016105b590612118565b60405180910390fd5b82826002600083815260200190815260200160002060060180549050811061061b576040517f08c379a0000000000000000000000000000000000000000000000000000000008152600401610612906121aa565b60405180910390fd5b8484600260008381526020019081526020016000206006018181548110610645576106446121ca565b5b906000526020600020906003020160000160009054906101000a900473ffffffffffffffffffffffffffffffffffffffff1673ffffffffffffffffffffffffffffffffffffffff163373ffffffffffffffffffffffffffffffffffffffff16146106e4576040517f08c379a00000000000000000000000000000000000000000000000000000000081526004016106db9061226b565b60405180910390fd5b866002600082815260200190815260200160002060030160009054906101000a900460ff1615610749576040517f08c379a0000000000000000000000000000000000000000000000000000000008152600401610740906122fd565b60405180910390fd5b8787600260008381526020019081526020016000206006018181548110610773576107726121ca565b5b906000526020600020906003020160020160009054906101000a900460ff16156107d2576040517f08c379a00000000000000000000000000000000000000000000000000000000081526004016107c990612369565b60405180910390fd5b896002600082815260200190815260200160002060010154421161082b576040517f08c379a0000000000000000000000000000000000000000000000000000000008152600401610822906123fb565b60405180910390fd5b6000600260008d81526020019081526020016000206006018b81548110610855576108546121ca565b5b9060005260206000209060030201905060018160020160006101000a81548160ff0219169083151502179055506108b58c8260000160009054906101000a900473ffffffffffffffffffffffffffffffffffffffff1683600101546114c0565b7ffb1da5cbf027ad18b7c1f786bf81e9920cc0db09d7e299a8e4f3dbb64ce32f018c8c6040516108e692919061241b565b60405180910390a1505050505050505050505050565b60015481565b600460009054906101000a900473ffffffffffffffffffffffffffffffffffffffff1681565b82600154811061096d576040517f08c379a000000000000000000000000000000000000000000000000000000000815260040161096490612118565b60405180910390fd5b8383600260008381526020019081526020016000206005018054905081106109ca576040517f08c379a00000000000000000000000000000000000000000000000000000000081526004016109c1906124b6565b60405180910390fd5b600360009054906101000a900473ffffffffffffffffffffffffffffffffffffffff1673ffffffffffffffffffffffffffffffffffffffff163373ffffffffffffffffffffffffffffffffffffffff1614610a5a576040517f08c379a0000000000000000000000000000000000000000000000000000000008152600401610a5190612522565b60405180910390fd5b60008411610a9d576040517f08c379a0000000000000000000000000000000000000000000000000000000008152600401610a949061258e565b60405180910390fd5b6000600260008881526020019081526020016000206005018681548110610ac757610ac66121ca565b5b906000526020600020906003020190506000606486600a610ae891906125dd565b610af29190612666565b9050610b2188600460009054906101000a900473ffffffffffffffffffffffffffffffffffffffff16836114c0565b610b5b888360010160009054906101000a900473ffffffffffffffffffffffffffffffffffffffff168389610b569190612697565b6114c0565b7fd83572deb53c985d6cb3610557f19c153a1d1d60c26613f1e6c2ae82b98a052d888888604051610b8e939291906126cb565b60405180910390a15050505050505050565b806001548110610be5576040517f08c379a0000000000000000000000000000000000000000000000000000000008152600401610bdc90612118565b60405180910390fd5b6064341015610c29576040517f08c379a0000000000000000000000000000000000000000000000000000000008152600401610c209061274e565b60405180910390fd5b6002600083815260200190815260200160002060060160405180606001604052803373ffffffffffffffffffffffffffffffffffffffff16815260200134815260200160001515815250908060018154018082558091505060019003906000526020600020906003020160009091909190915060008201518160000160006101000a81548173ffffffffffffffffffffffffffffffffffffffff021916908373ffffffffffffffffffffffffffffffffffffffff1602179055506020820151816001015560408201518160020160006101000a81548160ff021916908315150217905550505034600260008481526020019081526020016000206002016000828254610d35919061276e565b92505081905550600060016002600085815260200190815260200160002060060180549050610d649190612697565b90507f7431e5e30247dcb2379eab9b0e60e49038c5ddb5cac27f27a17e950c0220a69383823334604051610d9b94939291906127c4565b60405180910390a1505050565b600047905090565b816001548110610df5576040517f08c379a0000000000000000000000000000000000000000000000000000000008152600401610dec90612118565b60405180910390fd5b60016002600085815260200190815260200160002060030160006101000a81548160ff0219169083151502179055506002600084815260200190815260200160002060050160405180606001604052808481526020013373ffffffffffffffffffffffffffffffffffffffff1681526020014281525090806001815401808255809150506001900390600052602060002090600302016000909190919091506000820151816000019080519060200190610eb092919061167e565b5060208201518160010160006101000a81548173ffffffffffffffffffffffffffffffffffffffff021916908373ffffffffffffffffffffffffffffffffffffffff160217905550604082015181600201555050600060016002600086815260200190815260200160002060050180549050610f2c9190612697565b90507fb3678e54af7fd979c3e566d9167fc0a8aaf116e4e79aa5f1dbb0564d8b4085ba84338584604051610f639493929190612809565b60405180910390a150505050565b60026020528060005260406000206000915090508060000160009054906101000a900473ffffffffffffffffffffffffffffffffffffffff16908060010154908060020154908060030160009054906101000a900460ff1690806004018054610fd990612884565b80601f016020809104026020016040519081016040528092919081815260200182805461100590612884565b80156110525780601f1061102757610100808354040283529160200191611052565b820191906000526020600020905b81548152906001019060200180831161103557829003601f168201915b5050505050905085565b611064611704565b600260008381526020019081526020016000206040518060e00160405290816000820160009054906101000a900473ffffffffffffffffffffffffffffffffffffffff1673ffffffffffffffffffffffffffffffffffffffff1673ffffffffffffffffffffffffffffffffffffffff16815260200160018201548152602001600282015481526020016003820160009054906101000a900460ff1615151515815260200160048201805461111790612884565b80601f016020809104026020016040519081016040528092919081815260200182805461114390612884565b80156111905780601f1061116557610100808354040283529160200191611190565b820191906000526020600020905b81548152906001019060200180831161117357829003601f168201915b5050505050815260200160058201805480602002602001604051908101604052809291908181526020016000905b828210156112e257838290600052602060002090600302016040518060600160405290816000820180546111f190612884565b80601f016020809104026020016040519081016040528092919081815260200182805461121d90612884565b801561126a5780601f1061123f5761010080835404028352916020019161126a565b820191906000526020600020905b81548152906001019060200180831161124d57829003601f168201915b505050505081526020016001820160009054906101000a900473ffffffffffffffffffffffffffffffffffffffff1673ffffffffffffffffffffffffffffffffffffffff1673ffffffffffffffffffffffffffffffffffffffff168152602001600282015481525050815260200190600101906111be565b50505050815260200160068201805480602002602001604051908101604052809291908181526020016000905b828210156113bc57838290600052602060002090600302016040518060600160405290816000820160009054906101000a900473ffffffffffffffffffffffffffffffffffffffff1673ffffffffffffffffffffffffffffffffffffffff1673ffffffffffffffffffffffffffffffffffffffff168152602001600182015481526020016002820160009054906101000a900460ff1615151515815250508152602001906001019061130f565b50505050815250509050919050565b60008060015490506000600260008381526020019081526020016000209050338160000160006101000a81548173ffffffffffffffffffffffffffffffffffffffff021916908373ffffffffffffffffffffffffffffffffffffffff160217905550620697804261143c919061276e565b81600101819055508381600401908051906020019061145c92919061167e565b5060016000815480929190611470906128b6565b91905055507ffb38679481cd7a6e17c1d0c79e0b799c8db15005ffb346afda0d925354bf908082338684600101546040516114ae9493929190612809565b60405180910390a18192505050919050565b60008111611503576040517f08c379a00000000000000000000000000000000000000000000000000000000081526004016114fa90612971565b60405180910390fd5b806002600085815260200190815260200160002060020154101561155c576040517f08c379a0000000000000000000000000000000000000000000000000000000008152600401611553906129dd565b60405180910390fd5b8047101561159f576040517f08c379a000000000000000000000000000000000000000000000000000000000815260040161159690612a6f565b60405180910390fd5b806002600085815260200190815260200160002060020160008282546115c59190612697565b9250508190555060008273ffffffffffffffffffffffffffffffffffffffff16826040516115f29061204b565b60006040518083038185875af1925050503d806000811461162f576040519150601f19603f3d011682016040523d82523d6000602084013e611634565b606091505b5050905080611678576040517f08c379a000000000000000000000000000000000000000000000000000000000815260040161166f90612adb565b60405180910390fd5b50505050565b82805461168a90612884565b90600052602060002090601f0160209004810192826116ac57600085556116f3565b82601f106116c557805160ff19168380011785556116f3565b828001600101855582156116f3579182015b828111156116f25782518255916020019190600101906116d7565b5b5090506117009190611759565b5090565b6040518060e00160405280600073ffffffffffffffffffffffffffffffffffffffff16815260200160008152602001600081526020016000151581526020016060815260200160608152602001606081525090565b5b8082111561177257600081600090555060010161175a565b5090565b6000604051905090565b600080fd5b600080fd5b600073ffffffffffffffffffffffffffffffffffffffff82169050919050565b60006117b58261178a565b9050919050565b6117c5816117aa565b81146117d057600080fd5b50565b6000813590506117e2816117bc565b92915050565b6000602082840312156117fe576117fd611780565b5b600061180c848285016117d3565b91505092915050565b600080fd5b600080fd5b6000601f19601f8301169050919050565b7f4e487b7100000000000000000000000000000000000000000000000000000000600052604160045260246000fd5b6118688261181f565b810181811067ffffffffffffffff8211171561188757611886611830565b5b80604052505050565b600061189a611776565b90506118a6828261185f565b919050565b600067ffffffffffffffff8211156118c6576118c5611830565b5b6118cf8261181f565b9050602081019050919050565b82818337600083830152505050565b60006118fe6118f9846118ab565b611890565b90508281526020810184848401111561191a5761191961181a565b5b6119258482856118dc565b509392505050565b600082601f83011261194257611941611815565b5b81356119528482602086016118eb565b91505092915050565b60006020828403121561197157611970611780565b5b600082013567ffffffffffffffff81111561198f5761198e611785565b5b61199b8482850161192d565b91505092915050565b6000819050919050565b6119b7816119a4565b82525050565b60006020820190506119d260008301846119ae565b92915050565b6119e1816117aa565b82525050565b60006020820190506119fc60008301846119d8565b92915050565b611a0b816119a4565b8114611a1657600080fd5b50565b600081359050611a2881611a02565b92915050565b60008060408385031215611a4557611a44611780565b5b6000611a5385828601611a19565b9250506020611a6485828601611a19565b9150509250929050565b600080600060608486031215611a8757611a86611780565b5b6000611a9586828701611a19565b9350506020611aa686828701611a19565b9250506040611ab786828701611a19565b9150509250925092565b600060208284031215611ad757611ad6611780565b5b6000611ae584828501611a19565b91505092915050565b60008060408385031215611b0557611b04611780565b5b6000611b1385828601611a19565b925050602083013567ffffffffffffffff811115611b3457611b33611785565b5b611b408582860161192d565b9150509250929050565b6000611b558261178a565b9050919050565b611b6581611b4a565b82525050565b60008115159050919050565b611b8081611b6b565b82525050565b600081519050919050565b600082825260208201905092915050565b60005b83811015611bc0578082015181840152602081019050611ba5565b83811115611bcf576000848401525b50505050565b6000611be082611b86565b611bea8185611b91565b9350611bfa818560208601611ba2565b611c038161181f565b840191505092915050565b600060a082019050611c236000830188611b5c565b611c3060208301876119ae565b611c3d60408301866119ae565b611c4a6060830185611b77565b8181036080830152611c5c8184611bd5565b90509695505050505050565b611c7181611b4a565b82525050565b611c80816119a4565b82525050565b611c8f81611b6b565b82525050565b600082825260208201905092915050565b6000611cb182611b86565b611cbb8185611c95565b9350611ccb818560208601611ba2565b611cd48161181f565b840191505092915050565b600081519050919050565b600082825260208201905092915050565b6000819050602082019050919050565b60006060830160008301518482036000860152611d288282611ca6565b9150506020830151611d3d6020860182611c68565b506040830151611d506040860182611c77565b508091505092915050565b6000611d678383611d0b565b905092915050565b6000602082019050919050565b6000611d8782611cdf565b611d918185611cea565b935083602082028501611da385611cfb565b8060005b85811015611ddf5784840389528151611dc08582611d5b565b9450611dcb83611d6f565b925060208a01995050600181019050611da7565b50829750879550505050505092915050565b600081519050919050565b600082825260208201905092915050565b6000819050602082019050919050565b606082016000820151611e336000850182611c68565b506020820151611e466020850182611c77565b506040820151611e596040850182611c86565b50505050565b6000611e6b8383611e1d565b60608301905092915050565b6000602082019050919050565b6000611e8f82611df1565b611e998185611dfc565b9350611ea483611e0d565b8060005b83811015611ed5578151611ebc8882611e5f565b9750611ec783611e77565b925050600181019050611ea8565b5085935050505092915050565b600060e083016000830151611efa6000860182611c68565b506020830151611f0d6020860182611c77565b506040830151611f206040860182611c77565b506060830151611f336060860182611c86565b5060808301518482036080860152611f4b8282611ca6565b91505060a083015184820360a0860152611f658282611d7c565b91505060c083015184820360c0860152611f7f8282611e84565b9150508091505092915050565b60006020820190508181036000830152611fa68184611ee2565b905092915050565b7f53656e646572206973206e6f7420616e206f776e65722e000000000000000000600082015250565b6000611fe4601783611b91565b9150611fef82611fae565b602082019050919050565b6000602082019050818103600083015261201381611fd7565b9050919050565b600081905092915050565b50565b600061203560008361201a565b915061204082612025565b600082019050919050565b600061205682612028565b9150819050919050565b7f456d657267656e6379207769746864726177206661696c65642e000000000000600082015250565b6000612096601a83611b91565b91506120a182612060565b602082019050919050565b600060208201905081810360008301526120c581612089565b9050919050565b7f426f756e747920696e646578206973206f7574206f6620626f756e64732e0000600082015250565b6000612102601e83611b91565b915061210d826120cc565b602082019050919050565b60006020820190508181036000830152612131816120f5565b9050919050565b7f436f6e747269627574696f6e20696e646578206973206f7574206f6620626f7560008201527f6e64732e00000000000000000000000000000000000000000000000000000000602082015250565b6000612194602483611b91565b915061219f82612138565b604082019050919050565b600060208201905081810360008301526121c381612187565b9050919050565b7f4e487b7100000000000000000000000000000000000000000000000000000000600052603260045260246000fd5b7f53656e64657220646964206e6f74206973737565207468697320636f6e74726960008201527f627574696f6e2e00000000000000000000000000000000000000000000000000602082015250565b6000612255602783611b91565b9150612260826121f9565b604082019050919050565b6000602082019050818103600083015261228481612248565b9050919050565b7f54686520626f756e747920617320616c7265616479206265656e20616e73776560008201527f726564206279206174206c65617374206f6e6520706572736f6e2e0000000000602082015250565b60006122e7603b83611b91565b91506122f28261228b565b604082019050919050565b60006020820190508181036000830152612316816122da565b9050919050565b7f426f756e74792077617320616c726561647920726566756e6465642e00000000600082015250565b6000612353601c83611b91565b915061235e8261231d565b602082019050919050565b6000602082019050818103600083015261238281612346565b9050919050565b7f576520617265206e6f74206f7665722074686520626f756e747920646561646c60008201527f696e652e00000000000000000000000000000000000000000000000000000000602082015250565b60006123e5602483611b91565b91506123f082612389565b604082019050919050565b60006020820190508181036000830152612414816123d8565b9050919050565b600060408201905061243060008301856119ae565b61243d60208301846119ae565b9392505050565b7f46756c66696c6c6d656e7420696e646578206973206f7574206f6620626f756e60008201527f64732e0000000000000000000000000000000000000000000000000000000000602082015250565b60006124a0602383611b91565b91506124ab82612444565b604082019050919050565b600060208201905081810360008301526124cf81612493565b9050919050565b7f53656e646572206973206e6f7420612076616c696461746f722e000000000000600082015250565b600061250c601a83611b91565b9150612517826124d6565b602082019050919050565b6000602082019050818103600083015261253b816124ff565b9050919050565b7f546f6b656e20616d6f756e7420697320696e666572696f7220746f20302e0000600082015250565b6000612578601e83611b91565b915061258382612542565b602082019050919050565b600060208201905081810360008301526125a78161256b565b9050919050565b7f4e487b7100000000000000000000000000000000000000000000000000000000600052601160045260246000fd5b60006125e8826119a4565b91506125f3836119a4565b9250817fffffffffffffffffffffffffffffffffffffffffffffffffffffffffffffffff048311821515161561262c5761262b6125ae565b5b828202905092915050565b7f4e487b7100000000000000000000000000000000000000000000000000000000600052601260045260246000fd5b6000612671826119a4565b915061267c836119a4565b92508261268c5761268b612637565b5b828204905092915050565b60006126a2826119a4565b91506126ad836119a4565b9250828210156126c0576126bf6125ae565b5b828203905092915050565b60006060820190506126e060008301866119ae565b6126ed60208301856119ae565b6126fa60408301846119ae565b949350505050565b7f426f756e74792063616e6e6f74206265203c2031303020776569000000000000600082015250565b6000612738601a83611b91565b915061274382612702565b602082019050919050565b600060208201905081810360008301526127678161272b565b9050919050565b6000612779826119a4565b9150612784836119a4565b9250827fffffffffffffffffffffffffffffffffffffffffffffffffffffffffffffffff038211156127b9576127b86125ae565b5b828201905092915050565b60006080820190506127d960008301876119ae565b6127e660208301866119ae565b6127f360408301856119d8565b61280060608301846119ae565b95945050505050565b600060808201905061281e60008301876119ae565b61282b60208301866119d8565b818103604083015261283d8185611bd5565b905061284c60608301846119ae565b95945050505050565b7f4e487b7100000000000000000000000000000000000000000000000000000000600052602260045260246000fd5b6000600282049050600182168061289c57607f821691505b602082108114156128b0576128af612855565b5b50919050565b60006128c1826119a4565b91507fffffffffffffffffffffffffffffffffffffffffffffffffffffffffffffffff8214156128f4576128f36125ae565b5b600182019050919050565b7f5472616e73616374696f6e20616d6f756e7420696e666572696f72206f72206560008201527f7175616c20746f20300000000000000000000000000000000000000000000000602082015250565b600061295b602983611b91565b9150612966826128ff565b604082019050919050565b6000602082019050818103600083015261298a8161294e565b9050919050565b7f4e6f7420656e6f756768206d6f6e657920746f207472616e736163742e000000600082015250565b60006129c7601d83611b91565b91506129d282612991565b602082019050919050565b600060208201905081810360008301526129f6816129ba565b9050919050565b7f4e6f7420656e6f7567682066756e647320696e2074686520636f6e747261637460008201527f2e00000000000000000000000000000000000000000000000000000000000000602082015250565b6000612a59602183611b91565b9150612a64826129fd565b604082019050919050565b60006020820190508181036000830152612a8881612a4c565b9050919050565b7f546f6b656e207472616e73666572206661696c65642e00000000000000000000600082015250565b6000612ac5601683611b91565b9150612ad082612a8f565b602082019050919050565b60006020820190508181036000830152612af481612ab8565b905091905056fea2646970667358221220395990281926f66c539a3bda917387dde500da5e2a6a03d6817e3fa32338873764736f6c63430008090033",
  "linkReferences": {},
  "deployedLinkReferences": {}
}