{
  "_format": "hh-sol-artifact-1",
  "contractName": "Bounties",
  "sourceName": "contracts/bounties.sol",
  "abi": [
    {
      "inputs": [],
      "stateMutability": "nonpayable",
      "type": "constructor"
    },
    {
      "anonymous": false,
      "inputs": [
        {
          "indexed": false,
          "internalType": "uint256",
          "name": "_bountyId",
          "type": "uint256"
        },
        {
          "indexed": false,
          "internalType": "uint256",
          "name": "_fulfillmentId",
          "type": "uint256"
        },
        {
          "indexed": false,
          "internalType": "uint256",
          "name": "_tokenAmount",
          "type": "uint256"
        }
      ],
      "name": "AnswerAccepted",
      "type": "event"
    },
    {
      "anonymous": false,
      "inputs": [
        {
          "indexed": false,
          "internalType": "uint256",
          "name": "_bountyId",
          "type": "uint256"
        },
        {
          "indexed": false,
          "internalType": "address",
          "name": "_sender",
          "type": "address"
        },
        {
          "indexed": false,
          "internalType": "string",
          "name": "_answerHash",
          "type": "string"
        },
        {
          "indexed": false,
          "internalType": "uint256",
          "name": "numFulfillments",
          "type": "uint256"
        }
      ],
      "name": "BountyFulfilled",
      "type": "event"
    },
    {
      "anonymous": false,
      "inputs": [
        {
          "indexed": false,
          "internalType": "uint256",
          "name": "bountyId",
          "type": "uint256"
        },
        {
          "indexed": false,
          "internalType": "address",
          "name": "_issuer",
          "type": "address"
        },
        {
          "indexed": false,
          "internalType": "string",
          "name": "_questionHash",
          "type": "string"
        },
        {
          "indexed": false,
          "internalType": "uint256",
          "name": "_deadline",
          "type": "uint256"
        }
      ],
      "name": "BountyIssued",
      "type": "event"
    },
    {
      "anonymous": false,
      "inputs": [
        {
          "indexed": false,
          "internalType": "uint256",
          "name": "_bountyId",
          "type": "uint256"
        },
        {
          "indexed": false,
          "internalType": "uint256",
          "name": "_contributionId",
          "type": "uint256"
        },
        {
          "indexed": false,
          "internalType": "address",
          "name": "_contributor",
          "type": "address"
        },
        {
          "indexed": false,
          "internalType": "uint256",
          "name": "_amount",
          "type": "uint256"
        }
      ],
      "name": "ContributionAdded",
      "type": "event"
    },
    {
      "anonymous": false,
      "inputs": [
        {
          "indexed": false,
          "internalType": "uint256",
          "name": "_bountyId",
          "type": "uint256"
        },
        {
          "indexed": false,
          "internalType": "uint256",
          "name": "_contributionId",
          "type": "uint256"
        }
      ],
      "name": "ContributionRefunded",
      "type": "event"
    },
    {
      "inputs": [
        {
          "internalType": "uint256",
          "name": "_bountyId",
          "type": "uint256"
        },
        {
          "internalType": "uint256",
          "name": "_answerId",
          "type": "uint256"
        },
        {
          "internalType": "uint256",
          "name": "_tokenAmount",
          "type": "uint256"
        }
      ],
      "name": "acceptAnswer",
      "outputs": [],
      "stateMutability": "nonpayable",
      "type": "function"
    },
    {
      "inputs": [
        {
          "internalType": "uint256",
          "name": "_bountyId",
          "type": "uint256"
        },
        {
          "internalType": "string",
          "name": "_answerHash",
          "type": "string"
        }
      ],
      "name": "answerBounty",
      "outputs": [],
      "stateMutability": "nonpayable",
      "type": "function"
    },
    {
      "inputs": [
        {
          "internalType": "uint256",
          "name": "",
          "type": "uint256"
        }
      ],
      "name": "bounties",
      "outputs": [
        {
          "internalType": "address payable",
          "name": "issuer",
          "type": "address"
        },
        {
          "internalType": "uint256",
          "name": "deadline",
          "type": "uint256"
        },
        {
          "internalType": "uint256",
          "name": "balance",
          "type": "uint256"
        },
        {
          "internalType": "bool",
          "name": "hasBeenAnswered",
          "type": "bool"
        },
        {
          "internalType": "string",
          "name": "questionHash",
          "type": "string"
        }
      ],
      "stateMutability": "view",
      "type": "function"
    },
    {
      "inputs": [
        {
          "internalType": "uint256",
          "name": "_bountyId",
          "type": "uint256"
        }
      ],
      "name": "contribute",
      "outputs": [],
      "stateMutability": "payable",
      "type": "function"
    },
    {
      "inputs": [
        {
          "internalType": "uint256",
          "name": "_bountyId",
          "type": "uint256"
        }
      ],
      "name": "getBounty",
      "outputs": [
        {
          "components": [
            {
              "internalType": "address payable",
              "name": "issuer",
              "type": "address"
            },
            {
              "internalType": "uint256",
              "name": "deadline",
              "type": "uint256"
            },
            {
              "internalType": "uint256",
              "name": "balance",
              "type": "uint256"
            },
            {
              "internalType": "bool",
              "name": "hasBeenAnswered",
              "type": "bool"
            },
            {
              "internalType": "string",
              "name": "questionHash",
              "type": "string"
            },
            {
              "components": [
                {
                  "internalType": "string",
                  "name": "answerId",
                  "type": "string"
                },
                {
                  "internalType": "address payable",
                  "name": "submitter",
                  "type": "address"
                },
                {
                  "internalType": "uint256",
                  "name": "timestamp",
                  "type": "uint256"
                }
              ],
              "internalType": "struct Bounties.Fulfillment[]",
              "name": "fulfillments",
              "type": "tuple[]"
            },
            {
              "components": [
                {
                  "internalType": "address payable",
                  "name": "contributor",
                  "type": "address"
                },
                {
                  "internalType": "uint256",
                  "name": "amount",
                  "type": "uint256"
                },
                {
                  "internalType": "bool",
                  "name": "refunded",
                  "type": "bool"
                }
              ],
              "internalType": "struct Bounties.Contribution[]",
              "name": "contributions",
              "type": "tuple[]"
            }
          ],
          "internalType": "struct Bounties.Bounty",
          "name": "",
          "type": "tuple"
        }
      ],
      "stateMutability": "view",
      "type": "function"
    },
    {
      "inputs": [],
      "name": "getTotalSupply",
      "outputs": [
        {
          "internalType": "uint256",
          "name": "",
          "type": "uint256"
        }
      ],
      "stateMutability": "view",
      "type": "function"
    },
    {
      "inputs": [
        {
          "internalType": "string",
          "name": "_questionHash",
          "type": "string"
        }
      ],
      "name": "issueBountyAndContribute",
      "outputs": [
        {
          "internalType": "uint256",
          "name": "",
          "type": "uint256"
        }
      ],
      "stateMutability": "payable",
      "type": "function"
    },
    {
      "inputs": [],
      "name": "numBounties",
      "outputs": [
        {
          "internalType": "uint256",
          "name": "",
          "type": "uint256"
        }
      ],
      "stateMutability": "view",
      "type": "function"
    },
    {
      "inputs": [],
      "name": "owner",
      "outputs": [
        {
          "internalType": "address",
          "name": "",
          "type": "address"
        }
      ],
      "stateMutability": "view",
      "type": "function"
    },
    {
      "inputs": [
        {
          "internalType": "uint256",
          "name": "_bountyId",
          "type": "uint256"
        },
        {
          "internalType": "uint256",
          "name": "_contributionId",
          "type": "uint256"
        }
      ],
      "name": "refundContribution",
      "outputs": [],
      "stateMutability": "nonpayable",
      "type": "function"
    },
    {
      "inputs": [
        {
          "internalType": "address",
          "name": "_validator",
          "type": "address"
        }
      ],
      "name": "setValidator",
      "outputs": [],
      "stateMutability": "nonpayable",
      "type": "function"
    },
    {
      "inputs": [],
      "name": "validator",
      "outputs": [
        {
          "internalType": "address",
          "name": "",
          "type": "address"
        }
      ],
      "stateMutability": "view",
      "type": "function"
    },
    {
      "inputs": [],
      "name": "withdraw",
      "outputs": [],
      "stateMutability": "nonpayable",
      "type": "function"
    }
  ],
  "bytecode": "0x608060405234801561001057600080fd5b50600160008190555033600360006101000a81548173ffffffffffffffffffffffffffffffffffffffff021916908373ffffffffffffffffffffffffffffffffffffffff16021790555033600460006101000a81548173ffffffffffffffffffffffffffffffffffffffff021916908373ffffffffffffffffffffffffffffffffffffffff160217905550612be0806100aa6000396000f3fe6080604052600436106100c25760003560e01c80638da5cb5b1161007f578063c4e41b2211610059578063c4e41b2214610226578063cba8a2a714610251578063dc2f87441461027a578063ee8c4bbf146102bb576100c2565b80638da5cb5b146101b6578063ae67dbe5146101e1578063c1cbbca71461020a576100c2565b80631327d3d8146100c75780632c886913146100f05780633a5381b5146101205780633ccfd60b1461014b57806373e282a51461016257806388db0f521461018b575b600080fd5b3480156100d357600080fd5b506100ee60048036038101906100e9919061182b565b6102f8565b005b61010a6004803603810190610105919061199e565b6103cc565b6040516101179190611a00565b60405180910390f35b34801561012c57600080fd5b506101356103ec565b6040516101429190611a2a565b60405180910390f35b34801561015757600080fd5b50610160610412565b005b34801561016e57600080fd5b5061018960048036038101906101849190611a71565b610579565b005b34801561019757600080fd5b506101a06108fc565b6040516101ad9190611a00565b60405180910390f35b3480156101c257600080fd5b506101cb610902565b6040516101d89190611a2a565b60405180910390f35b3480156101ed57600080fd5b5061020860048036038101906102039190611ab1565b610928565b005b610224600480360381019061021f9190611b04565b610ba0565b005b34801561023257600080fd5b5061023b610deb565b6040516102489190611a00565b60405180910390f35b34801561025d57600080fd5b5061027860048036038101906102739190611b31565b610df3565b005b34801561028657600080fd5b506102a1600480360381019061029c9190611b04565b610fb4565b6040516102b2959493929190611c51565b60405180910390f35b3480156102c757600080fd5b506102e260048036038101906102dd9190611b04565b61109f565b6040516102ef9190611fcf565b60405180910390f35b600460009054906101000a900473ffffffffffffffffffffffffffffffffffffffff1673ffffffffffffffffffffffffffffffffffffffff163373ffffffffffffffffffffffffffffffffffffffff1614610388576040517f08c379a000000000000000000000000000000000000000000000000000000000815260040161037f9061203d565b60405180910390fd5b80600360006101000a81548173ffffffffffffffffffffffffffffffffffffffff021916908373ffffffffffffffffffffffffffffffffffffffff16021790555050565b6000806103d88361140e565b90506103e381610ba0565b80915050919050565b600360009054906101000a900473ffffffffffffffffffffffffffffffffffffffff1681565b600460009054906101000a900473ffffffffffffffffffffffffffffffffffffffff1673ffffffffffffffffffffffffffffffffffffffff163373ffffffffffffffffffffffffffffffffffffffff16146104a2576040517f08c379a00000000000000000000000000000000000000000000000000000000081526004016104999061203d565b60405180910390fd5b60004790506000600460009054906101000a900473ffffffffffffffffffffffffffffffffffffffff1673ffffffffffffffffffffffffffffffffffffffff16826040516104ef9061208e565b60006040518083038185875af1925050503d806000811461052c576040519150601f19603f3d011682016040523d82523d6000602084013e610531565b606091505b5050905080610575576040517f08c379a000000000000000000000000000000000000000000000000000000000815260040161056c906120ef565b60405180910390fd5b5050565b8160015481106105be576040517f08c379a00000000000000000000000000000000000000000000000000000000081526004016105b59061215b565b60405180910390fd5b82826002600083815260200190815260200160002060060180549050811061061b576040517f08c379a0000000000000000000000000000000000000000000000000000000008152600401610612906121ed565b60405180910390fd5b84846002600083815260200190815260200160002060060181815481106106455761064461220d565b5b906000526020600020906003020160000160009054906101000a900473ffffffffffffffffffffffffffffffffffffffff1673ffffffffffffffffffffffffffffffffffffffff163373ffffffffffffffffffffffffffffffffffffffff16146106e4576040517f08c379a00000000000000000000000000000000000000000000000000000000081526004016106db906122ae565b60405180910390fd5b866002600082815260200190815260200160002060030160009054906101000a900460ff1615610749576040517f08c379a000000000000000000000000000000000000000000000000000000000815260040161074090612340565b60405180910390fd5b87876002600083815260200190815260200160002060060181815481106107735761077261220d565b5b906000526020600020906003020160020160009054906101000a900460ff16156107d2576040517f08c379a00000000000000000000000000000000000000000000000000000000081526004016107c9906123ac565b60405180910390fd5b896002600082815260200190815260200160002060010154421161082b576040517f08c379a00000000000000000000000000000000000000000000000000000000081526004016108229061243e565b60405180910390fd5b6000600260008d81526020019081526020016000206006018b815481106108555761085461220d565b5b9060005260206000209060030201905060018160020160006101000a81548160ff0219169083151502179055506108b58c8260000160009054906101000a900473ffffffffffffffffffffffffffffffffffffffff168360010154611503565b7ffb1da5cbf027ad18b7c1f786bf81e9920cc0db09d7e299a8e4f3dbb64ce32f018c8c6040516108e692919061245e565b60405180910390a1505050505050505050505050565b60015481565b600460009054906101000a900473ffffffffffffffffffffffffffffffffffffffff1681565b82600154811061096d576040517f08c379a00000000000000000000000000000000000000000000000000000000081526004016109649061215b565b60405180910390fd5b8383600260008381526020019081526020016000206005018054905081106109ca576040517f08c379a00000000000000000000000000000000000000000000000000000000081526004016109c1906124f9565b60405180910390fd5b600360009054906101000a900473ffffffffffffffffffffffffffffffffffffffff1673ffffffffffffffffffffffffffffffffffffffff163373ffffffffffffffffffffffffffffffffffffffff1614610a5a576040517f08c379a0000000000000000000000000000000000000000000000000000000008152600401610a5190612565565b60405180910390fd5b60008411610a9d576040517f08c379a0000000000000000000000000000000000000000000000000000000008152600401610a94906125d1565b60405180910390fd5b6000600260008881526020019081526020016000206005018681548110610ac757610ac661220d565b5b906000526020600020906003020190506000606486600a610ae89190612620565b610af291906126a9565b9050610b2188600460009054906101000a900473ffffffffffffffffffffffffffffffffffffffff1683611503565b610b5b888360010160009054906101000a900473ffffffffffffffffffffffffffffffffffffffff168389610b5691906126da565b611503565b7fd83572deb53c985d6cb3610557f19c153a1d1d60c26613f1e6c2ae82b98a052d888888604051610b8e9392919061270e565b60405180910390a15050505050505050565b806001548110610be5576040517f08c379a0000000000000000000000000000000000000000000000000000000008152600401610bdc9061215b565b60405180910390fd5b60003411610c28576040517f08c379a0000000000000000000000000000000000000000000000000000000008152600401610c1f90612791565b60405180910390fd5b6064341015610c6c576040517f08c379a0000000000000000000000000000000000000000000000000000000008152600401610c63906127fd565b60405180910390fd5b6002600083815260200190815260200160002060060160405180606001604052803373ffffffffffffffffffffffffffffffffffffffff16815260200134815260200160001515815250908060018154018082558091505060019003906000526020600020906003020160009091909190915060008201518160000160006101000a81548173ffffffffffffffffffffffffffffffffffffffff021916908373ffffffffffffffffffffffffffffffffffffffff1602179055506020820151816001015560408201518160020160006101000a81548160ff021916908315150217905550505034600260008481526020019081526020016000206002016000828254610d78919061281d565b92505081905550600060016002600085815260200190815260200160002060060180549050610da791906126da565b90507f7431e5e30247dcb2379eab9b0e60e49038c5ddb5cac27f27a17e950c0220a69383823334604051610dde9493929190612873565b60405180910390a1505050565b600047905090565b816001548110610e38576040517f08c379a0000000000000000000000000000000000000000000000000000000008152600401610e2f9061215b565b60405180910390fd5b60016002600085815260200190815260200160002060030160006101000a81548160ff0219169083151502179055506002600084815260200190815260200160002060050160405180606001604052808481526020013373ffffffffffffffffffffffffffffffffffffffff1681526020014281525090806001815401808255809150506001900390600052602060002090600302016000909190919091506000820151816000019080519060200190610ef39291906116c1565b5060208201518160010160006101000a81548173ffffffffffffffffffffffffffffffffffffffff021916908373ffffffffffffffffffffffffffffffffffffffff160217905550604082015181600201555050600060016002600086815260200190815260200160002060050180549050610f6f91906126da565b90507fb3678e54af7fd979c3e566d9167fc0a8aaf116e4e79aa5f1dbb0564d8b4085ba84338584604051610fa694939291906128b8565b60405180910390a150505050565b60026020528060005260406000206000915090508060000160009054906101000a900473ffffffffffffffffffffffffffffffffffffffff16908060010154908060020154908060030160009054906101000a900460ff169080600401805461101c90612933565b80601f016020809104026020016040519081016040528092919081815260200182805461104890612933565b80156110955780601f1061106a57610100808354040283529160200191611095565b820191906000526020600020905b81548152906001019060200180831161107857829003601f168201915b5050505050905085565b6110a7611747565b600260008381526020019081526020016000206040518060e00160405290816000820160009054906101000a900473ffffffffffffffffffffffffffffffffffffffff1673ffffffffffffffffffffffffffffffffffffffff1673ffffffffffffffffffffffffffffffffffffffff16815260200160018201548152602001600282015481526020016003820160009054906101000a900460ff1615151515815260200160048201805461115a90612933565b80601f016020809104026020016040519081016040528092919081815260200182805461118690612933565b80156111d35780601f106111a8576101008083540402835291602001916111d3565b820191906000526020600020905b8154815290600101906020018083116111b657829003601f168201915b5050505050815260200160058201805480602002602001604051908101604052809291908181526020016000905b82821015611325578382906000526020600020906003020160405180606001604052908160008201805461123490612933565b80601f016020809104026020016040519081016040528092919081815260200182805461126090612933565b80156112ad5780601f10611282576101008083540402835291602001916112ad565b820191906000526020600020905b81548152906001019060200180831161129057829003601f168201915b505050505081526020016001820160009054906101000a900473ffffffffffffffffffffffffffffffffffffffff1673ffffffffffffffffffffffffffffffffffffffff1673ffffffffffffffffffffffffffffffffffffffff16815260200160028201548152505081526020019060010190611201565b50505050815260200160068201805480602002602001604051908101604052809291908181526020016000905b828210156113ff57838290600052602060002090600302016040518060600160405290816000820160009054906101000a900473ffffffffffffffffffffffffffffffffffffffff1673ffffffffffffffffffffffffffffffffffffffff1673ffffffffffffffffffffffffffffffffffffffff168152602001600182015481526020016002820160009054906101000a900460ff16151515158152505081526020019060010190611352565b50505050815250509050919050565b60008060015490506000600260008381526020019081526020016000209050338160000160006101000a81548173ffffffffffffffffffffffffffffffffffffffff021916908373ffffffffffffffffffffffffffffffffffffffff160217905550620697804261147f919061281d565b81600101819055508381600401908051906020019061149f9291906116c1565b50600160008154809291906114b390612965565b91905055507ffb38679481cd7a6e17c1d0c79e0b799c8db15005ffb346afda0d925354bf908082338684600101546040516114f194939291906128b8565b60405180910390a18192505050919050565b60008111611546576040517f08c379a000000000000000000000000000000000000000000000000000000000815260040161153d90612a20565b60405180910390fd5b806002600085815260200190815260200160002060020154101561159f576040517f08c379a000000000000000000000000000000000000000000000000000000000815260040161159690612a8c565b60405180910390fd5b804710156115e2576040517f08c379a00000000000000000000000000000000000000000000000000000000081526004016115d990612b1e565b60405180910390fd5b8060026000858152602001908152602001600020600201600082825461160891906126da565b9250508190555060008273ffffffffffffffffffffffffffffffffffffffff16826040516116359061208e565b60006040518083038185875af1925050503d8060008114611672576040519150601f19603f3d011682016040523d82523d6000602084013e611677565b606091505b50509050806116bb576040517f08c379a00000000000000000000000000000000000000000000000000000000081526004016116b290612b8a565b60405180910390fd5b50505050565b8280546116cd90612933565b90600052602060002090601f0160209004810192826116ef5760008555611736565b82601f1061170857805160ff1916838001178555611736565b82800160010185558215611736579182015b8281111561173557825182559160200191906001019061171a565b5b509050611743919061179c565b5090565b6040518060e00160405280600073ffffffffffffffffffffffffffffffffffffffff16815260200160008152602001600081526020016000151581526020016060815260200160608152602001606081525090565b5b808211156117b557600081600090555060010161179d565b5090565b6000604051905090565b600080fd5b600080fd5b600073ffffffffffffffffffffffffffffffffffffffff82169050919050565b60006117f8826117cd565b9050919050565b611808816117ed565b811461181357600080fd5b50565b600081359050611825816117ff565b92915050565b600060208284031215611841576118406117c3565b5b600061184f84828501611816565b91505092915050565b600080fd5b600080fd5b6000601f19601f8301169050919050565b7f4e487b7100000000000000000000000000000000000000000000000000000000600052604160045260246000fd5b6118ab82611862565b810181811067ffffffffffffffff821117156118ca576118c9611873565b5b80604052505050565b60006118dd6117b9565b90506118e982826118a2565b919050565b600067ffffffffffffffff82111561190957611908611873565b5b61191282611862565b9050602081019050919050565b82818337600083830152505050565b600061194161193c846118ee565b6118d3565b90508281526020810184848401111561195d5761195c61185d565b5b61196884828561191f565b509392505050565b600082601f83011261198557611984611858565b5b813561199584826020860161192e565b91505092915050565b6000602082840312156119b4576119b36117c3565b5b600082013567ffffffffffffffff8111156119d2576119d16117c8565b5b6119de84828501611970565b91505092915050565b6000819050919050565b6119fa816119e7565b82525050565b6000602082019050611a1560008301846119f1565b92915050565b611a24816117ed565b82525050565b6000602082019050611a3f6000830184611a1b565b92915050565b611a4e816119e7565b8114611a5957600080fd5b50565b600081359050611a6b81611a45565b92915050565b60008060408385031215611a8857611a876117c3565b5b6000611a9685828601611a5c565b9250506020611aa785828601611a5c565b9150509250929050565b600080600060608486031215611aca57611ac96117c3565b5b6000611ad886828701611a5c565b9350506020611ae986828701611a5c565b9250506040611afa86828701611a5c565b9150509250925092565b600060208284031215611b1a57611b196117c3565b5b6000611b2884828501611a5c565b91505092915050565b60008060408385031215611b4857611b476117c3565b5b6000611b5685828601611a5c565b925050602083013567ffffffffffffffff811115611b7757611b766117c8565b5b611b8385828601611970565b9150509250929050565b6000611b98826117cd565b9050919050565b611ba881611b8d565b82525050565b60008115159050919050565b611bc381611bae565b82525050565b600081519050919050565b600082825260208201905092915050565b60005b83811015611c03578082015181840152602081019050611be8565b83811115611c12576000848401525b50505050565b6000611c2382611bc9565b611c2d8185611bd4565b9350611c3d818560208601611be5565b611c4681611862565b840191505092915050565b600060a082019050611c666000830188611b9f565b611c7360208301876119f1565b611c8060408301866119f1565b611c8d6060830185611bba565b8181036080830152611c9f8184611c18565b90509695505050505050565b611cb481611b8d565b82525050565b611cc3816119e7565b82525050565b611cd281611bae565b82525050565b600082825260208201905092915050565b6000611cf482611bc9565b611cfe8185611cd8565b9350611d0e818560208601611be5565b611d1781611862565b840191505092915050565b600081519050919050565b600082825260208201905092915050565b6000819050602082019050919050565b60006060830160008301518482036000860152611d6b8282611ce9565b9150506020830151611d806020860182611cab565b506040830151611d936040860182611cba565b508091505092915050565b6000611daa8383611d4e565b905092915050565b6000602082019050919050565b6000611dca82611d22565b611dd48185611d2d565b935083602082028501611de685611d3e565b8060005b85811015611e225784840389528151611e038582611d9e565b9450611e0e83611db2565b925060208a01995050600181019050611dea565b50829750879550505050505092915050565b600081519050919050565b600082825260208201905092915050565b6000819050602082019050919050565b606082016000820151611e766000850182611cab565b506020820151611e896020850182611cba565b506040820151611e9c6040850182611cc9565b50505050565b6000611eae8383611e60565b60608301905092915050565b6000602082019050919050565b6000611ed282611e34565b611edc8185611e3f565b9350611ee783611e50565b8060005b83811015611f18578151611eff8882611ea2565b9750611f0a83611eba565b925050600181019050611eeb565b5085935050505092915050565b600060e083016000830151611f3d6000860182611cab565b506020830151611f506020860182611cba565b506040830151611f636040860182611cba565b506060830151611f766060860182611cc9565b5060808301518482036080860152611f8e8282611ce9565b91505060a083015184820360a0860152611fa88282611dbf565b91505060c083015184820360c0860152611fc28282611ec7565b9150508091505092915050565b60006020820190508181036000830152611fe98184611f25565b905092915050565b7f53656e646572206973206e6f7420616e206f776e65722e000000000000000000600082015250565b6000612027601783611bd4565b915061203282611ff1565b602082019050919050565b600060208201905081810360008301526120568161201a565b9050919050565b600081905092915050565b50565b600061207860008361205d565b915061208382612068565b600082019050919050565b60006120998261206b565b9150819050919050565b7f456d657267656e6379207769746864726177206661696c65642e000000000000600082015250565b60006120d9601a83611bd4565b91506120e4826120a3565b602082019050919050565b60006020820190508181036000830152612108816120cc565b9050919050565b7f426f756e747920696e646578206973206f7574206f6620626f756e64732e0000600082015250565b6000612145601e83611bd4565b91506121508261210f565b602082019050919050565b6000602082019050818103600083015261217481612138565b9050919050565b7f436f6e747269627574696f6e20696e646578206973206f7574206f6620626f7560008201527f6e64732e00000000000000000000000000000000000000000000000000000000602082015250565b60006121d7602483611bd4565b91506121e28261217b565b604082019050919050565b60006020820190508181036000830152612206816121ca565b9050919050565b7f4e487b7100000000000000000000000000000000000000000000000000000000600052603260045260246000fd5b7f53656e64657220646964206e6f74206973737565207468697320636f6e74726960008201527f627574696f6e2e00000000000000000000000000000000000000000000000000602082015250565b6000612298602783611bd4565b91506122a38261223c565b604082019050919050565b600060208201905081810360008301526122c78161228b565b9050919050565b7f54686520626f756e747920617320616c7265616479206265656e20616e73776560008201527f726564206279206174206c65617374206f6e6520706572736f6e2e0000000000602082015250565b600061232a603b83611bd4565b9150612335826122ce565b604082019050919050565b600060208201905081810360008301526123598161231d565b9050919050565b7f426f756e74792077617320616c726561647920726566756e6465642e00000000600082015250565b6000612396601c83611bd4565b91506123a182612360565b602082019050919050565b600060208201905081810360008301526123c581612389565b9050919050565b7f576520617265206e6f74206f7665722074686520626f756e747920646561646c60008201527f696e652e00000000000000000000000000000000000000000000000000000000602082015250565b6000612428602483611bd4565b9150612433826123cc565b604082019050919050565b600060208201905081810360008301526124578161241b565b9050919050565b600060408201905061247360008301856119f1565b61248060208301846119f1565b9392505050565b7f46756c66696c6c6d656e7420696e646578206973206f7574206f6620626f756e60008201527f64732e0000000000000000000000000000000000000000000000000000000000602082015250565b60006124e3602383611bd4565b91506124ee82612487565b604082019050919050565b60006020820190508181036000830152612512816124d6565b9050919050565b7f53656e646572206973206e6f7420612076616c696461746f722e000000000000600082015250565b600061254f601a83611bd4565b915061255a82612519565b602082019050919050565b6000602082019050818103600083015261257e81612542565b9050919050565b7f546f6b656e20616d6f756e7420697320696e666572696f7220746f20302e0000600082015250565b60006125bb601e83611bd4565b91506125c682612585565b602082019050919050565b600060208201905081810360008301526125ea816125ae565b9050919050565b7f4e487b7100000000000000000000000000000000000000000000000000000000600052601160045260246000fd5b600061262b826119e7565b9150612636836119e7565b9250817fffffffffffffffffffffffffffffffffffffffffffffffffffffffffffffffff048311821515161561266f5761266e6125f1565b5b828202905092915050565b7f4e487b7100000000000000000000000000000000000000000000000000000000600052601260045260246000fd5b60006126b4826119e7565b91506126bf836119e7565b9250826126cf576126ce61267a565b5b828204905092915050565b60006126e5826119e7565b91506126f0836119e7565b925082821015612703576127026125f1565b5b828203905092915050565b600060608201905061272360008301866119f1565b61273060208301856119f1565b61273d60408301846119f1565b949350505050565b7f416d6f756e7420696e666572696f7220746f20302e0000000000000000000000600082015250565b600061277b601583611bd4565b915061278682612745565b602082019050919050565b600060208201905081810360008301526127aa8161276e565b9050919050565b7f426f756e74792063616e6e6f74206265203c2031303020776569000000000000600082015250565b60006127e7601a83611bd4565b91506127f2826127b1565b602082019050919050565b60006020820190508181036000830152612816816127da565b9050919050565b6000612828826119e7565b9150612833836119e7565b9250827fffffffffffffffffffffffffffffffffffffffffffffffffffffffffffffffff03821115612868576128676125f1565b5b828201905092915050565b600060808201905061288860008301876119f1565b61289560208301866119f1565b6128a26040830185611a1b565b6128af60608301846119f1565b95945050505050565b60006080820190506128cd60008301876119f1565b6128da6020830186611a1b565b81810360408301526128ec8185611c18565b90506128fb60608301846119f1565b95945050505050565b7f4e487b7100000000000000000000000000000000000000000000000000000000600052602260045260246000fd5b6000600282049050600182168061294b57607f821691505b6020821081141561295f5761295e612904565b5b50919050565b6000612970826119e7565b91507fffffffffffffffffffffffffffffffffffffffffffffffffffffffffffffffff8214156129a3576129a26125f1565b5b600182019050919050565b7f5472616e73616374696f6e20616d6f756e7420696e666572696f72206f72206560008201527f7175616c20746f20300000000000000000000000000000000000000000000000602082015250565b6000612a0a602983611bd4565b9150612a15826129ae565b604082019050919050565b60006020820190508181036000830152612a39816129fd565b9050919050565b7f4e6f7420656e6f756768206d6f6e657920746f207472616e736163742e000000600082015250565b6000612a76601d83611bd4565b9150612a8182612a40565b602082019050919050565b60006020820190508181036000830152612aa581612a69565b9050919050565b7f4e6f7420656e6f7567682066756e647320696e2074686520636f6e747261637460008201527f2e00000000000000000000000000000000000000000000000000000000000000602082015250565b6000612b08602183611bd4565b9150612b1382612aac565b604082019050919050565b60006020820190508181036000830152612b3781612afb565b9050919050565b7f546f6b656e207472616e73666572206661696c65642e00000000000000000000600082015250565b6000612b74601683611bd4565b9150612b7f82612b3e565b602082019050919050565b60006020820190508181036000830152612ba381612b67565b905091905056fea2646970667358221220cbb8592bcfbde4eb83d791058f9bb180a259ccfbe41305c0d50a87a883f0ccdb64736f6c63430008090033",
  "linkReferences": {},
  "deployedLinkReferences": {}
}